{
  "contractName": "RockPaperScissors",
  "abi": [
    {
      "anonymous": false,
      "inputs": [
        {
          "indexed": false,
          "internalType": "string",
          "name": "announcement",
          "type": "string"
        },
        {
          "indexed": false,
          "internalType": "address",
          "name": "player",
          "type": "address"
        }
      ],
      "name": "PlayerJoined",
      "type": "event"
    },
    {
      "anonymous": false,
      "inputs": [
        {
          "indexed": false,
          "internalType": "string",
          "name": "loserAnnouncement",
          "type": "string"
        },
        {
          "indexed": false,
          "internalType": "string",
          "name": "winnerAnnouncement",
          "type": "string"
        },
        {
          "indexed": false,
          "internalType": "address",
          "name": "winner",
          "type": "address"
        }
      ],
      "name": "Winner",
      "type": "event"
    },
    {
      "stateMutability": "payable",
      "type": "fallback",
      "payable": true
    },
    {
      "stateMutability": "payable",
      "type": "receive",
      "payable": true
    },
    {
      "inputs": [],
      "name": "joinGame",
      "outputs": [],
      "stateMutability": "nonpayable",
      "type": "function"
    },
    {
      "inputs": [
        {
          "internalType": "enum RockPaperScissors.Options",
          "name": "_playerChoice",
          "type": "uint8"
        }
      ],
      "name": "chooseAnOption",
      "outputs": [],
      "stateMutability": "nonpayable",
      "type": "function"
    },
    {
      "inputs": [],
      "name": "getPlayers",
      "outputs": [
        {
          "internalType": "address",
          "name": "",
          "type": "address"
        },
        {
          "internalType": "address",
          "name": "",
          "type": "address"
        }
      ],
      "stateMutability": "view",
      "type": "function",
      "constant": true
    }
  ],
  "bytecode": "0x60806040526000600160146101000a81548160ff0219169083600381111561002a5761002961006c565b5b02179055506000600160156101000a81548160ff021916908360038111156100555761005461006c565b5b021790555034801561006657600080fd5b5061009b565b7f4e487b7100000000000000000000000000000000000000000000000000000000600052602160045260246000fd5b611691806100aa6000396000f3fe6080604052600436106100385760003560e01c806387535263146100415780638b5b9ccc1461006a578063d4f77b1c146100965761003f565b3661003f57005b005b34801561004d57600080fd5b5061006860048036038101906100639190610f8b565b6100ad565b005b34801561007657600080fd5b5061007f61055b565b60405161008d929190610ff9565b60405180910390f35b3480156100a257600080fd5b506100ab6105aa565b005b600073ffffffffffffffffffffffffffffffffffffffff1660008054906101000a900473ffffffffffffffffffffffffffffffffffffffff1673ffffffffffffffffffffffffffffffffffffffff160361013c576040517f08c379a0000000000000000000000000000000000000000000000000000000008152600401610133906110a5565b60405180910390fd5b600073ffffffffffffffffffffffffffffffffffffffff16600160009054906101000a900473ffffffffffffffffffffffffffffffffffffffff1673ffffffffffffffffffffffffffffffffffffffff16036101cd576040517f08c379a00000000000000000000000000000000000000000000000000000000081526004016101c490611137565b60405180910390fd5b60008054906101000a900473ffffffffffffffffffffffffffffffffffffffff1673ffffffffffffffffffffffffffffffffffffffff163373ffffffffffffffffffffffffffffffffffffffff1614801561025c57506000600381111561023757610236611157565b5b600160149054906101000a900460ff16600381111561025957610258611157565b5b14155b1561029c576040517f08c379a0000000000000000000000000000000000000000000000000000000008152600401610293906111d2565b60405180910390fd5b600160009054906101000a900473ffffffffffffffffffffffffffffffffffffffff1673ffffffffffffffffffffffffffffffffffffffff163373ffffffffffffffffffffffffffffffffffffffff1614801561032d57506000600381111561030857610307611157565b5b600160159054906101000a900460ff16600381111561032a57610329611157565b5b14155b1561036d576040517f08c379a0000000000000000000000000000000000000000000000000000000008152600401610364906111d2565b60405180910390fd5b6000600381111561038157610380611157565b5b81600381111561039457610393611157565b5b036103d4576040517f08c379a00000000000000000000000000000000000000000000000000000000081526004016103cb90611264565b60405180910390fd5b60008054906101000a900473ffffffffffffffffffffffffffffffffffffffff1673ffffffffffffffffffffffffffffffffffffffff163373ffffffffffffffffffffffffffffffffffffffff16036104525780600160146101000a81548160ff0219169083600381111561044c5761044b611157565b5b02179055505b600160009054906101000a900473ffffffffffffffffffffffffffffffffffffffff1673ffffffffffffffffffffffffffffffffffffffff163373ffffffffffffffffffffffffffffffffffffffff16036104d25780600160156101000a81548160ff021916908360038111156104cc576104cb611157565b5b02179055505b600060038111156104e6576104e5611157565b5b600160149054906101000a900460ff16600381111561050857610507611157565b5b1415801561054a57506000600381111561052557610524611157565b5b600160159054906101000a900460ff16600381111561054757610546611157565b5b14155b1561055857610557610994565b5b50565b60008060008054906101000a900473ffffffffffffffffffffffffffffffffffffffff16600160009054906101000a900473ffffffffffffffffffffffffffffffffffffffff16915091509091565b60008054906101000a900473ffffffffffffffffffffffffffffffffffffffff1673ffffffffffffffffffffffffffffffffffffffff163373ffffffffffffffffffffffffffffffffffffffff1603610638576040517f08c379a000000000000000000000000000000000000000000000000000000000815260040161062f906112f6565b60405180910390fd5b600160009054906101000a900473ffffffffffffffffffffffffffffffffffffffff1673ffffffffffffffffffffffffffffffffffffffff163373ffffffffffffffffffffffffffffffffffffffff16036106c8576040517f08c379a00000000000000000000000000000000000000000000000000000000081526004016106bf90611388565b60405180910390fd5b600073ffffffffffffffffffffffffffffffffffffffff1660008054906101000a900473ffffffffffffffffffffffffffffffffffffffff1673ffffffffffffffffffffffffffffffffffffffff1614806107715750600073ffffffffffffffffffffffffffffffffffffffff16600160009054906101000a900473ffffffffffffffffffffffffffffffffffffffff1673ffffffffffffffffffffffffffffffffffffffff16145b6107b0576040517f08c379a00000000000000000000000000000000000000000000000000000000081526004016107a79061141a565b60405180910390fd5b600073ffffffffffffffffffffffffffffffffffffffff1660008054906101000a900473ffffffffffffffffffffffffffffffffffffffff1673ffffffffffffffffffffffffffffffffffffffff16036108a057336000806101000a81548173ffffffffffffffffffffffffffffffffffffffff021916908373ffffffffffffffffffffffffffffffffffffffff1602179055507f6426ed08b4816b27e58d721b4ff6fb44e6696b9d5ca257dcbd4b0576eb4dc53960008054906101000a900473ffffffffffffffffffffffffffffffffffffffff166040516108939190611486565b60405180910390a1610992565b600073ffffffffffffffffffffffffffffffffffffffff16600160009054906101000a900473ffffffffffffffffffffffffffffffffffffffff1673ffffffffffffffffffffffffffffffffffffffff16036109915733600160006101000a81548173ffffffffffffffffffffffffffffffffffffffff021916908373ffffffffffffffffffffffffffffffffffffffff1602179055507f6426ed08b4816b27e58d721b4ff6fb44e6696b9d5ca257dcbd4b0576eb4dc539600160009054906101000a900473ffffffffffffffffffffffffffffffffffffffff166040516109889190611500565b60405180910390a15b5b565b600080600080600160159054906101000a900460ff1660038111156109bc576109bb611157565b5b600160149054906101000a900460ff1660038111156109de576109dd611157565b5b03610a0157600160149054906101000a900460ff16935083925060009150610c53565b60016003811115610a1557610a14611157565b5b600160149054906101000a900460ff166003811115610a3757610a36611157565b5b148015610a765750600380811115610a5257610a51611157565b5b600160159054906101000a900460ff166003811115610a7457610a73611157565b5b145b80610af25750600380811115610a8f57610a8e611157565b5b600160149054906101000a900460ff166003811115610ab157610ab0611157565b5b148015610af1575060026003811115610acd57610acc611157565b5b600160159054906101000a900460ff166003811115610aef57610aee611157565b5b145b5b80610b6f575060026003811115610b0c57610b0b611157565b5b600160149054906101000a900460ff166003811115610b2e57610b2d611157565b5b148015610b6e575060016003811115610b4a57610b49611157565b5b600160159054906101000a900460ff166003811115610b6c57610b6b611157565b5b145b5b15610be557600160149054906101000a900460ff169350600160159054906101000a900460ff16925060008054906101000a900473ffffffffffffffffffffffffffffffffffffffff169150600160009054906101000a900473ffffffffffffffffffffffffffffffffffffffff169050610c52565b600160159054906101000a900460ff169350600160149054906101000a900460ff169250600160009054906101000a900473ffffffffffffffffffffffffffffffffffffffff16915060008054906101000a900473ffffffffffffffffffffffffffffffffffffffff1690505b5b6000610c94846040518060400160405280601181526020017f546865206c6f7365722063686f73653a20000000000000000000000000000000815250610d24565b90506000610cd7866040518060400160405280601281526020017f5468652077696e6e65722063686f73653a200000000000000000000000000000815250610d24565b90507fc9d1d34b289265dfe60d7cf6c417b88e97142e6860e7320ccc9d01c0080f1d81828286604051610d0c939291906115b6565b60405180910390a1610d1c610d5e565b505050505050565b60606000610d3184610db6565b90508281604051602001610d46929190611637565b60405160208183030381529060405291505092915050565b6000600160146101000a81548160ff02191690836003811115610d8457610d83611157565b5b02179055506000600160156101000a81548160ff02191690836003811115610daf57610dae611157565b5b0217905550565b6060816003811115610dcb57610dca611157565b5b60016003811115610ddf57610dde611157565b5b03610e21576040518060400160405280600481526020017f526f636b000000000000000000000000000000000000000000000000000000008152509050610f5c565b816003811115610e3457610e33611157565b5b600380811115610e4757610e46611157565b5b03610e89576040518060400160405280600881526020017f53636973736f72730000000000000000000000000000000000000000000000008152509050610f5c565b816003811115610e9c57610e9b611157565b5b60026003811115610eb057610eaf611157565b5b03610ef2576040518060400160405280600581526020017f50617065720000000000000000000000000000000000000000000000000000008152509050610f5c565b816003811115610f0557610f04611157565b5b60006003811115610f1957610f18611157565b5b03610f5b576040518060400160405280600a81526020017f4e6f7420706c61796564000000000000000000000000000000000000000000008152509050610f5c565b5b919050565b600080fd5b60048110610f7357600080fd5b50565b600081359050610f8581610f66565b92915050565b600060208284031215610fa157610fa0610f61565b5b6000610faf84828501610f76565b91505092915050565b600073ffffffffffffffffffffffffffffffffffffffff82169050919050565b6000610fe382610fb8565b9050919050565b610ff381610fd8565b82525050565b600060408201905061100e6000830185610fea565b61101b6020830184610fea565b9392505050565b600082825260208201905092915050565b7f506c65617365206a6f696e207468652067616d65206265666f726520796f752060008201527f63686f6f736520616e206f7074696f6e00000000000000000000000000000000602082015250565b600061108f603083611022565b915061109a82611033565b604082019050919050565b600060208201905081810360008301526110be81611082565b9050919050565b7f43616e206e6f742063686f6f736520616e206f7074696f6e206265666f72652060008201527f74686520706c617965722032206a6f696e73207468652067616d650000000000602082015250565b6000611121603b83611022565b915061112c826110c5565b604082019050919050565b6000602082019050818103600083015261115081611114565b9050919050565b7f4e487b7100000000000000000000000000000000000000000000000000000000600052602160045260246000fd5b7f596f7520616c726561647920706c617965640000000000000000000000000000600082015250565b60006111bc601283611022565b91506111c782611186565b602082019050919050565b600060208201905081810360008301526111eb816111af565b9050919050565b7f5468652063686f696365204e4f5420504c41594544206973206e6f742076616c60008201527f6964000000000000000000000000000000000000000000000000000000000000602082015250565b600061124e602283611022565b9150611259826111f2565b604082019050919050565b6000602082019050818103600083015261127d81611241565b9050919050565b7f54686973206164647265737320616c7265616479206a6f696e6564206173207060008201527f6c61796572203100000000000000000000000000000000000000000000000000602082015250565b60006112e0602783611022565b91506112eb82611284565b604082019050919050565b6000602082019050818103600083015261130f816112d3565b9050919050565b7f54686973206164647265737320616c7265616479206a6f696e6564206173207060008201527f6c61796572203200000000000000000000000000000000000000000000000000602082015250565b6000611372602783611022565b915061137d82611316565b604082019050919050565b600060208201905081810360008301526113a181611365565b9050919050565b7f5468657265206973206e6f20737061636520666f72206e657720706c6179657260008201527f7300000000000000000000000000000000000000000000000000000000000000602082015250565b6000611404602183611022565b915061140f826113a8565b604082019050919050565b60006020820190508181036000830152611433816113f7565b9050919050565b7f54686520706c617965722031206a6f696e6564207468652067616d6500000000600082015250565b6000611470601c83611022565b915061147b8261143a565b602082019050919050565b6000604082019050818103600083015261149f81611463565b90506114ae6020830184610fea565b92915050565b7f54686520706c617965722032206a6f696e6564207468652067616d6500000000600082015250565b60006114ea601c83611022565b91506114f5826114b4565b602082019050919050565b60006040820190508181036000830152611519816114dd565b90506115286020830184610fea565b92915050565b600081519050919050565b60005b8381101561155757808201518184015260208101905061153c565b83811115611566576000848401525b50505050565b6000601f19601f8301169050919050565b60006115888261152e565b6115928185611022565b93506115a2818560208601611539565b6115ab8161156c565b840191505092915050565b600060608201905081810360008301526115d0818661157d565b905081810360208301526115e4818561157d565b90506115f36040830184610fea565b949350505050565b600081905092915050565b60006116118261152e565b61161b81856115fb565b935061162b818560208601611539565b80840191505092915050565b60006116438285611606565b915061164f8284611606565b9150819050939250505056fea2646970667358221220aa5f2df692724b4c641ac5b15c084a257cbb33dc148a34d340af217e24e20bb864736f6c634300080d0033",
  "immutableReferences": {},
  "source": "//pragma solidity ^0.8.0;\r\n//\r\n//contract RockPaperScissors {\r\n//\r\n//    // Using enum to have a fixed set of options\r\n//    enum Options {NOT_PLAYED, ROCK, PAPER, SCISSORS}\r\n//\r\n//    // Used to show data about the finished game, it shows the choice of winner-loser and the address of the winner\r\n//    event Winner(\r\n//        string loserAnnouncement,\r\n//        string winnerAnnouncement,\r\n//        address winner\r\n//    );\r\n//\r\n//    // Used to show when the players join the game\r\n//    event PlayerJoined(string announcement, address player);\r\n//    address private player1;\r\n//    address private player2;\r\n//    Options player1Choice = Options.NOT_PLAYED;\r\n//    Options player2Choice = Options.NOT_PLAYED;\r\n//\r\n//    // It is needed to have at least to players to start the game\r\n//    modifier atLeastTwoPlayers() {\r\n//        require(\r\n//            player1 != address(0),\r\n//            \"Please join the game before you choose an option\"\r\n//        );\r\n//        require(\r\n//            player2 != address(0),\r\n//            \"Can not choose an option before the player 2 joins the game\"\r\n//        );\r\n//        _;\r\n//    }\r\n//    // Prevents players from changing their option during the game\r\n//    modifier alreadyPlayed() {\r\n//        if (msg.sender == player1 && player1Choice != Options.NOT_PLAYED) {\r\n//            revert(\"You already played\");\r\n//        }\r\n//        if (msg.sender == player2 && player2Choice != Options.NOT_PLAYED) {\r\n//            revert(\"You already played\");\r\n//        }\r\n//        _;\r\n//    }\r\n//\r\n//    // Prevents players from joinning multiple times\r\n//    modifier alreadyJoined() {\r\n//        require(\r\n//            msg.sender != player1,\r\n//            \"This address already joined as player 1\"\r\n//        );\r\n//        require(\r\n//            msg.sender != player2,\r\n//            \"This address already joined as player 2\"\r\n//        );\r\n//        _;\r\n//    }\r\n//\r\n//    // Function to allow the players to join the game, players will be assigned starting by player 1,\r\n//    // if it was assigned before then it assigns it to player2.\r\n//    function joinGame() external alreadyJoined() {\r\n//        // Prevents more than two players per game\r\n//        require(\r\n//            player1 == address(0) || player2 == address(0),\r\n//            \"There is no space for new players\"\r\n//        );\r\n//        // If the player1 has not been assigned before then assign the sender address to player1\r\n//        if (player1 == address(0)) {\r\n//            player1 = msg.sender;\r\n//            emit PlayerJoined(\"The player 1 joined the game\", player1);\r\n//        } else {\r\n//            // If the player2 has not been assigned before then assign the sender address to player2\r\n//            if (player2 == address(0)) {\r\n//                player2 = msg.sender;\r\n//                emit PlayerJoined(\"The player 2 joined the game\", player2);\r\n//            }\r\n//        }\r\n//    }\r\n//\r\n//    // Using external since it is cheaper than public and nobody needs to call it internally\r\n//    // Function to select the players option and the game, and if both players are selected an option then choose a winner\r\n//    function chooseAnOption(Options _playerChoice)\r\n//    external\r\n//    atLeastTwoPlayers()\r\n//    alreadyPlayed()\r\n//    {\r\n//        // Disables this NOT_PLAYED option from the game\r\n//        require(\r\n//            _playerChoice != Options.NOT_PLAYED,\r\n//            \"The choice NOT PLAYED is not valid\"\r\n//        );\r\n//        if (msg.sender == player1) {\r\n//            player1Choice = _playerChoice;\r\n//        }\r\n//        if (msg.sender == player2) {\r\n//            player2Choice = _playerChoice;\r\n//        }\r\n//        if (\r\n//            player1Choice != Options.NOT_PLAYED &&\r\n//            player2Choice != Options.NOT_PLAYED\r\n//        ) {\r\n//            selectWinner();\r\n//        }\r\n//    }\r\n//\r\n//    // The rock defeats the scissors by breaking it, the scissors that defeats the paper by cutting it\r\n//    // and the paper defeats the stone by wrapping it, if the option is the same then it is a draw\r\n//    function selectWinner() internal{\r\n//        Options winnerChoice;\r\n//        Options loserChoice;\r\n//        address winner;\r\n//        address loser;\r\n//        // It is a draw\r\n//        if (player1Choice == player2Choice) {\r\n//            winnerChoice = player1Choice;\r\n//            loserChoice = winnerChoice;\r\n//            winner = address(0);\r\n//        }\r\n//        // The winner is player1\r\n//        else if (\r\n//            (player1Choice == Options.ROCK &&\r\n//            player2Choice == Options.SCISSORS) ||\r\n//            (player1Choice == Options.SCISSORS &&\r\n//            player2Choice == Options.PAPER) ||\r\n//              (player1Choice == Options.PAPER &&\r\n//               player2Choice == Options.Rock)\r\n//        ) {\r\n//            winnerChoice = player1Choice;\r\n//            loserChoice = player2Choice;\r\n//            winner = player1;\r\n//            loser = player2;\r\n//        }\r\n//        // The winner is player2\r\n//        else {\r\n//            winnerChoice = player2Choice;\r\n//            loserChoice = player1Choice;\r\n//            winner = player2;\r\n//            loser = player1;\r\n//        }\r\n//        // Announce the loser and winner\r\n//        string memory loserAnnouncement =\r\n//        getAnnouncement(loserChoice, \"The loser chose: \");\r\n//        string memory winnerAnnouncement =\r\n//        getAnnouncement(winnerChoice, \"The winner chose: \");\r\n//        emit Winner(loserAnnouncement, winnerAnnouncement, winner);\r\n//        payable(loser).transfer(msg.value);\r\n//        // After the winner was announced, the game is reset\r\n//        reset();\r\n//    }\r\n//\r\n//    fallback() external payable {}\r\n//    receive() external payable {}\r\n//\r\n//\r\n//\r\n//    // Creates an announcement message for the players\r\n//    function getAnnouncement(Options option, string memory message)\r\n//    internal\r\n//    pure\r\n//    returns (string memory announcement)\r\n//    {\r\n//        string memory choice = getMyOptionKeyByValue(option);\r\n//        return string(abi.encodePacked(message, choice));\r\n//    }\r\n//\r\n//    // Convert the enum to string\r\n//    function getMyOptionKeyByValue(Options option)\r\n//    internal\r\n//    pure\r\n//    returns (string memory selectedOption)\r\n//    {\r\n//        if (Options.ROCK == option) return \"Rock\";\r\n//        if (Options.SCISSORS == option) return \"Scissors\";\r\n//        if (Options.PAPER == option) return \"Paper\";\r\n//        if (Options.NOT_PLAYED == option) return \"Not played\";\r\n//    }\r\n//\r\n//    function reset() internal {\r\n//        player1Choice = Options.NOT_PLAYED;\r\n//        player2Choice = Options.NOT_PLAYED;\r\n//    }\r\n//\r\n//    // Using getter instead of public addresses because address modification is not allowed\r\n//    function getPlayers() external view returns (address, address) {\r\n//        return (player1, player2);\r\n//    }\r\n//}\r\n\r\n\r\n// SPDX-License-Identifier: MIT\r\npragma solidity ^0.8.0;\r\n\r\ncontract RockPaperScissors {\r\n\r\n    // Using enum to have a fixed set of options\r\n    enum Options {NOT_PLAYED, ROCK, PAPER, SCISSORS}\r\n\r\n    // Used to show data about the finished game, it shows the choice of winner-loser and the address of the winner\r\n    event Winner(\r\n        string loserAnnouncement,\r\n        string winnerAnnouncement,\r\n        address winner\r\n    );\r\n\r\n    // Used to show when the players join the game\r\n    event PlayerJoined(string announcement, address player);\r\n    address private player1;\r\n    address private player2;\r\n    Options player1Choice = Options.NOT_PLAYED;\r\n    Options player2Choice = Options.NOT_PLAYED;\r\n\r\n    // It is needed to have at least to players to start the game\r\n    modifier atLeastTwoPlayers() {\r\n        require(\r\n            player1 != address(0),\r\n            \"Please join the game before you choose an option\"\r\n        );\r\n        require(\r\n            player2 != address(0),\r\n            \"Can not choose an option before the player 2 joins the game\"\r\n        );\r\n        _;\r\n    }\r\n    // Prevents players from changing their option during the game\r\n    modifier alreadyPlayed() {\r\n        if (msg.sender == player1 && player1Choice != Options.NOT_PLAYED) {\r\n            revert(\"You already played\");\r\n        }\r\n        if (msg.sender == player2 && player2Choice != Options.NOT_PLAYED) {\r\n            revert(\"You already played\");\r\n        }\r\n        _;\r\n    }\r\n\r\n    // Prevents players from joinning multiple times\r\n    modifier alreadyJoined() {\r\n        require(\r\n            msg.sender != player1,\r\n            \"This address already joined as player 1\"\r\n        );\r\n        require(\r\n            msg.sender != player2,\r\n            \"This address already joined as player 2\"\r\n        );\r\n        _;\r\n    }\r\n\r\n    // Function to allow the players to join the game, players will be assigned starting by player 1,\r\n    // if it was assigned before then it assigns it to player2.\r\n    function joinGame() external alreadyJoined() {\r\n        // Prevents more than two players per game\r\n        require(\r\n            player1 == address(0) || player2 == address(0),\r\n            \"There is no space for new players\"\r\n        );\r\n        // If the player1 has not been assigned before then assign the sender address to player1\r\n        if (player1 == address(0)) {\r\n            player1 = msg.sender;\r\n            emit PlayerJoined(\"The player 1 joined the game\", player1);\r\n        } else {\r\n            // If the player2 has not been assigned before then assign the sender address to player2\r\n            if (player2 == address(0)) {\r\n                player2 = msg.sender;\r\n                emit PlayerJoined(\"The player 2 joined the game\", player2);\r\n            }\r\n        }\r\n    }\r\n\r\n//    function loserTranse(address winner)\r\n//    payable\r\n//    public {\r\n//        payable(winner).transfer(1000);\r\n//    }\r\n\r\n\r\n    // Using external since it is cheaper than public and nobody needs to call it internally\r\n    // Function to select the players option and the game, and if both players are selected an option then choose a winner\r\n    function chooseAnOption(Options _playerChoice)\r\n    external\r\n    atLeastTwoPlayers()\r\n    alreadyPlayed()\r\n    {\r\n        // Disables this NOT_PLAYED option from the game\r\n        require(\r\n            _playerChoice != Options.NOT_PLAYED,\r\n            \"The choice NOT PLAYED is not valid\"\r\n        );\r\n        if (msg.sender == player1) {\r\n            player1Choice = _playerChoice;\r\n        }\r\n        if (msg.sender == player2) {\r\n            player2Choice = _playerChoice;\r\n        }\r\n        if (\r\n            player1Choice != Options.NOT_PLAYED &&\r\n            player2Choice != Options.NOT_PLAYED\r\n        ) {\r\n            selectWinner();\r\n        }\r\n    }\r\n\r\n    // The rock defeats the scissors by breaking it, the scissors that defeats the paper by cutting it\r\n    // and the paper defeats the stone by wrapping it, if the option is the same then it is a draw\r\n    function selectWinner() internal{\r\n        Options winnerChoice;\r\n        Options loserChoice;\r\n        address winner;\r\n        address loser;\r\n        // It is a draw\r\n        if (player1Choice == player2Choice) {\r\n            winnerChoice = player1Choice;\r\n            loserChoice = winnerChoice;\r\n            winner = address(0);\r\n        }\r\n        // The winner is player1\r\n        else if (\r\n            (player1Choice == Options.ROCK &&\r\n            player2Choice == Options.SCISSORS) ||\r\n            (player1Choice == Options.SCISSORS &&\r\n            player2Choice == Options.PAPER) ||\r\n            (player1Choice == Options.PAPER && player2Choice == Options.ROCK)\r\n        ) {\r\n            winnerChoice = player1Choice;\r\n            loserChoice = player2Choice;\r\n            winner = player1;\r\n            loser = player2;\r\n        }\r\n        // The winner is player2\r\n        else {\r\n            winnerChoice = player2Choice;\r\n            loserChoice = player1Choice;\r\n            winner = player2;\r\n            loser = player1;\r\n        }\r\n        // Announce the loser and winner\r\n        string memory loserAnnouncement =\r\n        getAnnouncement(loserChoice, \"The loser chose: \");\r\n        string memory winnerAnnouncement =\r\n        getAnnouncement(winnerChoice, \"The winner chose: \");\r\n        emit Winner(loserAnnouncement, winnerAnnouncement, winner);\r\n//        loserTranse(winner);\r\n        // After the winner was announced, the game is reset\r\n        reset();\r\n    }\r\n\r\n    fallback() external payable {}\r\n    receive() external payable {}\r\n\r\n    // Creates an announcement message for the players\r\n    function getAnnouncement(Options option, string memory message)\r\n    internal\r\n    pure\r\n    returns (string memory announcement)\r\n    {\r\n        string memory choice = getMyOptionKeyByValue(option);\r\n        return string(abi.encodePacked(message, choice));\r\n    }\r\n\r\n    // Convert the enum to string\r\n    function getMyOptionKeyByValue(Options option)\r\n    internal\r\n    pure\r\n    returns (string memory selectedOption)\r\n    {\r\n        if (Options.ROCK == option) return \"Rock\";\r\n        if (Options.SCISSORS == option) return \"Scissors\";\r\n        if (Options.PAPER == option) return \"Paper\";\r\n        if (Options.NOT_PLAYED == option) return \"Not played\";\r\n    }\r\n\r\n    function reset() internal {\r\n        player1Choice = Options.NOT_PLAYED;\r\n        player2Choice = Options.NOT_PLAYED;\r\n    }\r\n\r\n    // Using getter instead of public addresses because address modification is not allowed\r\n    function getPlayers() external view returns (address, address) {\r\n        return (player1, player2);\r\n    }\r\n}\r\n",
  "sourcePath": "/Users/weiyikong/Columbia/6883/project/RockPaperScissors/contracts/RockPaperScissors.sol",
  "compiler": {
    "name": "solc",
    "version": "0.8.13+commit.abaa5c0e.Emscripten.clang"
  },
  "schemaVersion": "3.4.7",
  "updatedAt": "2022-05-10T22:02:38.401Z",
  "networkType": "ethereum",
  "devdoc": {
    "kind": "dev",
    "methods": {},
    "version": 1
  },
  "userdoc": {
    "kind": "user",
    "methods": {},
    "version": 1
  }
}