{
  "contractName": "RockPaperScissors",
  "abi": [
    {
      "inputs": [],
      "stateMutability": "nonpayable",
      "type": "constructor"
    },
    {
      "anonymous": false,
      "inputs": [
        {
          "indexed": true,
          "internalType": "address",
          "name": "owner",
          "type": "address"
        },
        {
          "indexed": true,
          "internalType": "address",
          "name": "spender",
          "type": "address"
        },
        {
          "indexed": false,
          "internalType": "uint256",
          "name": "value",
          "type": "uint256"
        }
      ],
      "name": "Approval",
      "type": "event"
    },
    {
      "anonymous": false,
      "inputs": [
        {
          "indexed": false,
          "internalType": "string",
          "name": "announcement",
          "type": "string"
        },
        {
          "indexed": false,
          "internalType": "address",
          "name": "player",
          "type": "address"
        }
      ],
      "name": "PlayerJoined",
      "type": "event"
    },
    {
      "anonymous": false,
      "inputs": [
        {
          "indexed": true,
          "internalType": "address",
          "name": "from",
          "type": "address"
        },
        {
          "indexed": true,
          "internalType": "address",
          "name": "to",
          "type": "address"
        },
        {
          "indexed": false,
          "internalType": "uint256",
          "name": "value",
          "type": "uint256"
        }
      ],
      "name": "Transfer",
      "type": "event"
    },
    {
      "anonymous": false,
      "inputs": [
        {
          "indexed": false,
          "internalType": "string",
          "name": "loserAnnouncement",
          "type": "string"
        },
        {
          "indexed": false,
          "internalType": "string",
          "name": "winnerAnnouncement",
          "type": "string"
        },
        {
          "indexed": false,
          "internalType": "address",
          "name": "winner",
          "type": "address"
        }
      ],
      "name": "Winner",
      "type": "event"
    },
    {
      "anonymous": false,
      "inputs": [
        {
          "indexed": false,
          "internalType": "address",
          "name": "WINNER",
          "type": "address"
        }
      ],
      "name": "Winner2",
      "type": "event"
    },
    {
      "stateMutability": "payable",
      "type": "fallback",
      "payable": true
    },
    {
      "inputs": [
        {
          "internalType": "address",
          "name": "owner",
          "type": "address"
        },
        {
          "internalType": "address",
          "name": "spender",
          "type": "address"
        }
      ],
      "name": "allowance",
      "outputs": [
        {
          "internalType": "uint256",
          "name": "",
          "type": "uint256"
        }
      ],
      "stateMutability": "view",
      "type": "function",
      "constant": true
    },
    {
      "inputs": [
        {
          "internalType": "address",
          "name": "spender",
          "type": "address"
        },
        {
          "internalType": "uint256",
          "name": "amount",
          "type": "uint256"
        }
      ],
      "name": "approve",
      "outputs": [
        {
          "internalType": "bool",
          "name": "",
          "type": "bool"
        }
      ],
      "stateMutability": "nonpayable",
      "type": "function"
    },
    {
      "inputs": [
        {
          "internalType": "address",
          "name": "account",
          "type": "address"
        }
      ],
      "name": "balanceOf",
      "outputs": [
        {
          "internalType": "uint256",
          "name": "",
          "type": "uint256"
        }
      ],
      "stateMutability": "view",
      "type": "function",
      "constant": true
    },
    {
      "inputs": [],
      "name": "decimals",
      "outputs": [
        {
          "internalType": "uint8",
          "name": "",
          "type": "uint8"
        }
      ],
      "stateMutability": "view",
      "type": "function",
      "constant": true
    },
    {
      "inputs": [
        {
          "internalType": "address",
          "name": "spender",
          "type": "address"
        },
        {
          "internalType": "uint256",
          "name": "subtractedValue",
          "type": "uint256"
        }
      ],
      "name": "decreaseAllowance",
      "outputs": [
        {
          "internalType": "bool",
          "name": "",
          "type": "bool"
        }
      ],
      "stateMutability": "nonpayable",
      "type": "function"
    },
    {
      "inputs": [
        {
          "internalType": "address",
          "name": "spender",
          "type": "address"
        },
        {
          "internalType": "uint256",
          "name": "addedValue",
          "type": "uint256"
        }
      ],
      "name": "increaseAllowance",
      "outputs": [
        {
          "internalType": "bool",
          "name": "",
          "type": "bool"
        }
      ],
      "stateMutability": "nonpayable",
      "type": "function"
    },
    {
      "inputs": [],
      "name": "name",
      "outputs": [
        {
          "internalType": "string",
          "name": "",
          "type": "string"
        }
      ],
      "stateMutability": "view",
      "type": "function",
      "constant": true
    },
    {
      "inputs": [],
      "name": "owner",
      "outputs": [
        {
          "internalType": "address",
          "name": "",
          "type": "address"
        }
      ],
      "stateMutability": "view",
      "type": "function",
      "constant": true
    },
    {
      "inputs": [],
      "name": "symbol",
      "outputs": [
        {
          "internalType": "string",
          "name": "",
          "type": "string"
        }
      ],
      "stateMutability": "view",
      "type": "function",
      "constant": true
    },
    {
      "inputs": [],
      "name": "totalSupply",
      "outputs": [
        {
          "internalType": "uint256",
          "name": "",
          "type": "uint256"
        }
      ],
      "stateMutability": "view",
      "type": "function",
      "constant": true
    },
    {
      "inputs": [
        {
          "internalType": "address",
          "name": "to",
          "type": "address"
        },
        {
          "internalType": "uint256",
          "name": "amount",
          "type": "uint256"
        }
      ],
      "name": "transfer",
      "outputs": [
        {
          "internalType": "bool",
          "name": "",
          "type": "bool"
        }
      ],
      "stateMutability": "nonpayable",
      "type": "function"
    },
    {
      "inputs": [
        {
          "internalType": "address",
          "name": "from",
          "type": "address"
        },
        {
          "internalType": "address",
          "name": "to",
          "type": "address"
        },
        {
          "internalType": "uint256",
          "name": "amount",
          "type": "uint256"
        }
      ],
      "name": "transferFrom",
      "outputs": [
        {
          "internalType": "bool",
          "name": "",
          "type": "bool"
        }
      ],
      "stateMutability": "nonpayable",
      "type": "function"
    },
    {
      "stateMutability": "payable",
      "type": "receive",
      "payable": true
    },
    {
      "inputs": [],
      "name": "joinGame",
      "outputs": [],
      "stateMutability": "payable",
      "type": "function",
      "payable": true
    },
    {
      "inputs": [],
      "name": "loserTranse",
      "outputs": [],
      "stateMutability": "payable",
      "type": "function",
      "payable": true
    },
    {
      "inputs": [
        {
          "internalType": "address payable",
          "name": "recipient",
          "type": "address"
        }
      ],
      "name": "send_ETH",
      "outputs": [],
      "stateMutability": "payable",
      "type": "function",
      "payable": true
    },
    {
      "inputs": [
        {
          "internalType": "address payable",
          "name": "recipient",
          "type": "address"
        }
      ],
      "name": "fund",
      "outputs": [],
      "stateMutability": "payable",
      "type": "function",
      "payable": true
    },
    {
      "inputs": [
        {
          "internalType": "enum RockPaperScissors.Options",
          "name": "_playerChoice",
          "type": "uint8"
        }
      ],
      "name": "chooseAnOption",
      "outputs": [],
      "stateMutability": "nonpayable",
      "type": "function"
    },
    {
      "inputs": [],
      "name": "getPlayers",
      "outputs": [
        {
          "internalType": "address",
          "name": "",
          "type": "address"
        },
        {
          "internalType": "address",
          "name": "",
          "type": "address"
        }
      ],
      "stateMutability": "view",
      "type": "function",
      "constant": true
    }
  ],
  "bytecode": "0x60806040526000600b60146101000a81548160ff021916908360038111156200002d576200002c6200035a565b5b02179055506000600b60156101000a81548160ff021916908360038111156200005b576200005a6200035a565b5b02179055503480156200006d57600080fd5b506040518060400160405280600981526020017f47616d6520436f696e00000000000000000000000000000000000000000000008152506040518060400160405280600581526020017f47434f494e0000000000000000000000000000000000000000000000000000008152508160039080519060200190620000f2929190620002aa565b5080600490805190602001906200010b929190620002aa565b50505062000122306103e86200012860201b60201c565b62000534565b600073ffffffffffffffffffffffffffffffffffffffff168273ffffffffffffffffffffffffffffffffffffffff16036200019a576040517f08c379a00000000000000000000000000000000000000000000000000000000081526004016200019190620003ea565b60405180910390fd5b620001ae60008383620002a060201b60201c565b8060026000828254620001c2919062000445565b92505081905550806000808473ffffffffffffffffffffffffffffffffffffffff1673ffffffffffffffffffffffffffffffffffffffff168152602001908152602001600020600082825462000219919062000445565b925050819055508173ffffffffffffffffffffffffffffffffffffffff16600073ffffffffffffffffffffffffffffffffffffffff167fddf252ad1be2c89b69c2b068fc378daa952ba7f163c4a11628f55a4df523b3ef83604051620002809190620004b3565b60405180910390a36200029c60008383620002a560201b60201c565b5050565b505050565b505050565b828054620002b890620004ff565b90600052602060002090601f016020900481019282620002dc576000855562000328565b82601f10620002f757805160ff191683800117855562000328565b8280016001018555821562000328579182015b82811115620003275782518255916020019190600101906200030a565b5b5090506200033791906200033b565b5090565b5b80821115620003565760008160009055506001016200033c565b5090565b7f4e487b7100000000000000000000000000000000000000000000000000000000600052602160045260246000fd5b600082825260208201905092915050565b7f45524332303a206d696e7420746f20746865207a65726f206164647265737300600082015250565b6000620003d2601f8362000389565b9150620003df826200039a565b602082019050919050565b600060208201905081810360008301526200040581620003c3565b9050919050565b6000819050919050565b7f4e487b7100000000000000000000000000000000000000000000000000000000600052601160045260246000fd5b600062000452826200040c565b91506200045f836200040c565b9250827fffffffffffffffffffffffffffffffffffffffffffffffffffffffffffffffff0382111562000497576200049662000416565b5b828201905092915050565b620004ad816200040c565b82525050565b6000602082019050620004ca6000830184620004a2565b92915050565b7f4e487b7100000000000000000000000000000000000000000000000000000000600052602260045260246000fd5b600060028204905060018216806200051857607f821691505b6020821081036200052e576200052d620004d0565b5b50919050565b612ca880620005446000396000f3fe60806040526004361061010d5760003560e01c806387535263116100955780639e33fbd9116100645780639e33fbd91461035c578063a457c2d714610378578063a9059cbb146103b5578063d4f77b1c146103f2578063dd62ed3e146103fc57610114565b806387535263146102b15780638b5b9ccc146102da5780638da5cb5b1461030657806395d89b411461033157610114565b806323b872dd116100dc57806323b872dd146101c5578063313ce56714610202578063395093511461022d5780636198b35a1461026a57806370a082311461027457610114565b806306fdde0314610116578063095ea7b31461014157806318160ddd1461017e57806323024408146101a957610114565b3661011457005b005b34801561012257600080fd5b5061012b610439565b6040516101389190611e59565b60405180910390f35b34801561014d57600080fd5b5061016860048036038101906101639190611f14565b6104cb565b6040516101759190611f6f565b60405180910390f35b34801561018a57600080fd5b506101936104ee565b6040516101a09190611f99565b60405180910390f35b6101c360048036038101906101be9190611ff2565b6104f8565b005b3480156101d157600080fd5b506101ec60048036038101906101e7919061201f565b610555565b6040516101f99190611f6f565b60405180910390f35b34801561020e57600080fd5b50610217610584565b604051610224919061208e565b60405180910390f35b34801561023957600080fd5b50610254600480360381019061024f9190611f14565b61058d565b6040516102619190611f6f565b60405180910390f35b6102726105c4565b005b34801561028057600080fd5b5061029b600480360381019061029691906120a9565b61064a565b6040516102a89190611f99565b60405180910390f35b3480156102bd57600080fd5b506102d860048036038101906102d391906120fb565b610692565b005b3480156102e657600080fd5b506102ef610b46565b6040516102fd929190612137565b60405180910390f35b34801561031257600080fd5b5061031b610b97565b6040516103289190612160565b60405180910390f35b34801561033d57600080fd5b50610346610bbd565b6040516103539190611e59565b60405180910390f35b61037660048036038101906103719190611ff2565b610c4f565b005b34801561038457600080fd5b5061039f600480360381019061039a9190611f14565b610c5b565b6040516103ac9190611f6f565b60405180910390f35b3480156103c157600080fd5b506103dc60048036038101906103d79190611f14565b610cd2565b6040516103e99190611f6f565b60405180910390f35b6103fa610cf5565b005b34801561040857600080fd5b50610423600480360381019061041e919061217b565b6110f6565b6040516104309190611f99565b60405180910390f35b606060038054610448906121ea565b80601f0160208091040260200160405190810160405280929190818152602001828054610474906121ea565b80156104c15780601f10610496576101008083540402835291602001916104c1565b820191906000526020600020905b8154815290600101906020018083116104a457829003601f168201915b5050505050905090565b6000806104d661117d565b90506104e3818585611185565b600191505092915050565b6000600254905090565b8073ffffffffffffffffffffffffffffffffffffffff166108fc678ac7230489e8000034610526919061224a565b9081150290604051600060405180830381858888f19350505050158015610551573d6000803e3d6000fd5b5050565b60008061056061117d565b905061056d85828561134e565b6105788585856113da565b60019150509392505050565b60006012905090565b60008061059861117d565b90506105b98185856105aa85896110f6565b6105b491906122a4565b611185565b600191505092915050565b7fad0999bce5437daa58197e038730011f8421614e3689c234ca597905ff4570a7600960009054906101000a900473ffffffffffffffffffffffffffffffffffffffff166040516106159190612160565b60405180910390a1610648600960009054906101000a900473ffffffffffffffffffffffffffffffffffffffff16610c4f565b565b60008060008373ffffffffffffffffffffffffffffffffffffffff1673ffffffffffffffffffffffffffffffffffffffff168152602001908152602001600020549050919050565b600073ffffffffffffffffffffffffffffffffffffffff16600560009054906101000a900473ffffffffffffffffffffffffffffffffffffffff1673ffffffffffffffffffffffffffffffffffffffff1603610723576040517f08c379a000000000000000000000000000000000000000000000000000000000815260040161071a9061236c565b60405180910390fd5b600073ffffffffffffffffffffffffffffffffffffffff16600660009054906101000a900473ffffffffffffffffffffffffffffffffffffffff1673ffffffffffffffffffffffffffffffffffffffff16036107b4576040517f08c379a00000000000000000000000000000000000000000000000000000000081526004016107ab906123fe565b60405180910390fd5b600560009054906101000a900473ffffffffffffffffffffffffffffffffffffffff1673ffffffffffffffffffffffffffffffffffffffff163373ffffffffffffffffffffffffffffffffffffffff161480156108455750600060038111156108205761081f61241e565b5b600b60149054906101000a900460ff1660038111156108425761084161241e565b5b14155b15610885576040517f08c379a000000000000000000000000000000000000000000000000000000000815260040161087c90612499565b60405180910390fd5b600660009054906101000a900473ffffffffffffffffffffffffffffffffffffffff1673ffffffffffffffffffffffffffffffffffffffff163373ffffffffffffffffffffffffffffffffffffffff161480156109165750600060038111156108f1576108f061241e565b5b600b60159054906101000a900460ff1660038111156109135761091261241e565b5b14155b15610956576040517f08c379a000000000000000000000000000000000000000000000000000000000815260040161094d90612499565b60405180910390fd5b6000600381111561096a5761096961241e565b5b81600381111561097d5761097c61241e565b5b036109bd576040517f08c379a00000000000000000000000000000000000000000000000000000000081526004016109b49061252b565b60405180910390fd5b600560009054906101000a900473ffffffffffffffffffffffffffffffffffffffff1673ffffffffffffffffffffffffffffffffffffffff163373ffffffffffffffffffffffffffffffffffffffff1603610a3d5780600b60146101000a81548160ff02191690836003811115610a3757610a3661241e565b5b02179055505b600660009054906101000a900473ffffffffffffffffffffffffffffffffffffffff1673ffffffffffffffffffffffffffffffffffffffff163373ffffffffffffffffffffffffffffffffffffffff1603610abd5780600b60156101000a81548160ff02191690836003811115610ab757610ab661241e565b5b02179055505b60006003811115610ad157610ad061241e565b5b600b60149054906101000a900460ff166003811115610af357610af261241e565b5b14158015610b35575060006003811115610b1057610b0f61241e565b5b600b60159054906101000a900460ff166003811115610b3257610b3161241e565b5b14155b15610b4357610b42611659565b5b50565b600080600560009054906101000a900473ffffffffffffffffffffffffffffffffffffffff16600660009054906101000a900473ffffffffffffffffffffffffffffffffffffffff16915091509091565b600a60009054906101000a900473ffffffffffffffffffffffffffffffffffffffff1681565b606060048054610bcc906121ea565b80601f0160208091040260200160405190810160405280929190818152602001828054610bf8906121ea565b8015610c455780601f10610c1a57610100808354040283529160200191610c45565b820191906000526020600020905b815481529060010190602001808311610c2857829003601f168201915b5050505050905090565b610c58816104f8565b50565b600080610c6661117d565b90506000610c7482866110f6565b905083811015610cb9576040517f08c379a0000000000000000000000000000000000000000000000000000000008152600401610cb0906125bd565b60405180910390fd5b610cc68286868403611185565b60019250505092915050565b600080610cdd61117d565b9050610cea8185856113da565b600191505092915050565b600560009054906101000a900473ffffffffffffffffffffffffffffffffffffffff1673ffffffffffffffffffffffffffffffffffffffff163373ffffffffffffffffffffffffffffffffffffffff1603610d85576040517f08c379a0000000000000000000000000000000000000000000000000000000008152600401610d7c9061264f565b60405180910390fd5b600660009054906101000a900473ffffffffffffffffffffffffffffffffffffffff1673ffffffffffffffffffffffffffffffffffffffff163373ffffffffffffffffffffffffffffffffffffffff1603610e15576040517f08c379a0000000000000000000000000000000000000000000000000000000008152600401610e0c906126e1565b60405180910390fd5b600073ffffffffffffffffffffffffffffffffffffffff16600560009054906101000a900473ffffffffffffffffffffffffffffffffffffffff1673ffffffffffffffffffffffffffffffffffffffff161480610ec05750600073ffffffffffffffffffffffffffffffffffffffff16600660009054906101000a900473ffffffffffffffffffffffffffffffffffffffff1673ffffffffffffffffffffffffffffffffffffffff16145b610eff576040517f08c379a0000000000000000000000000000000000000000000000000000000008152600401610ef690612773565b60405180910390fd5b600073ffffffffffffffffffffffffffffffffffffffff16600560009054906101000a900473ffffffffffffffffffffffffffffffffffffffff1673ffffffffffffffffffffffffffffffffffffffff1603610ffb5733600560006101000a81548173ffffffffffffffffffffffffffffffffffffffff021916908373ffffffffffffffffffffffffffffffffffffffff160217905550346007819055507f6426ed08b4816b27e58d721b4ff6fb44e6696b9d5ca257dcbd4b0576eb4dc539600560009054906101000a900473ffffffffffffffffffffffffffffffffffffffff16604051610fee91906127df565b60405180910390a16110f4565b600073ffffffffffffffffffffffffffffffffffffffff16600660009054906101000a900473ffffffffffffffffffffffffffffffffffffffff1673ffffffffffffffffffffffffffffffffffffffff16036110f35733600660006101000a81548173ffffffffffffffffffffffffffffffffffffffff021916908373ffffffffffffffffffffffffffffffffffffffff160217905550346008819055507f6426ed08b4816b27e58d721b4ff6fb44e6696b9d5ca257dcbd4b0576eb4dc539600660009054906101000a900473ffffffffffffffffffffffffffffffffffffffff166040516110ea9190612859565b60405180910390a15b5b565b6000600160008473ffffffffffffffffffffffffffffffffffffffff1673ffffffffffffffffffffffffffffffffffffffff16815260200190815260200160002060008373ffffffffffffffffffffffffffffffffffffffff1673ffffffffffffffffffffffffffffffffffffffff16815260200190815260200160002054905092915050565b600033905090565b600073ffffffffffffffffffffffffffffffffffffffff168373ffffffffffffffffffffffffffffffffffffffff16036111f4576040517f08c379a00000000000000000000000000000000000000000000000000000000081526004016111eb906128f9565b60405180910390fd5b600073ffffffffffffffffffffffffffffffffffffffff168273ffffffffffffffffffffffffffffffffffffffff1603611263576040517f08c379a000000000000000000000000000000000000000000000000000000000815260040161125a9061298b565b60405180910390fd5b80600160008573ffffffffffffffffffffffffffffffffffffffff1673ffffffffffffffffffffffffffffffffffffffff16815260200190815260200160002060008473ffffffffffffffffffffffffffffffffffffffff1673ffffffffffffffffffffffffffffffffffffffff168152602001908152602001600020819055508173ffffffffffffffffffffffffffffffffffffffff168373ffffffffffffffffffffffffffffffffffffffff167f8c5be1e5ebec7d5bd14f71427d1e84f3dd0314c0f7b2291e5b200ac8c7c3b925836040516113419190611f99565b60405180910390a3505050565b600061135a84846110f6565b90507fffffffffffffffffffffffffffffffffffffffffffffffffffffffffffffffff81146113d457818110156113c6576040517f08c379a00000000000000000000000000000000000000000000000000000000081526004016113bd906129f7565b60405180910390fd5b6113d38484848403611185565b5b50505050565b600073ffffffffffffffffffffffffffffffffffffffff168373ffffffffffffffffffffffffffffffffffffffff1603611449576040517f08c379a000000000000000000000000000000000000000000000000000000000815260040161144090612a89565b60405180910390fd5b600073ffffffffffffffffffffffffffffffffffffffff168273ffffffffffffffffffffffffffffffffffffffff16036114b8576040517f08c379a00000000000000000000000000000000000000000000000000000000081526004016114af90612b1b565b60405180910390fd5b6114c3838383611b79565b60008060008573ffffffffffffffffffffffffffffffffffffffff1673ffffffffffffffffffffffffffffffffffffffff16815260200190815260200160002054905081811015611549576040517f08c379a000000000000000000000000000000000000000000000000000000000815260040161154090612bad565b60405180910390fd5b8181036000808673ffffffffffffffffffffffffffffffffffffffff1673ffffffffffffffffffffffffffffffffffffffff16815260200190815260200160002081905550816000808573ffffffffffffffffffffffffffffffffffffffff1673ffffffffffffffffffffffffffffffffffffffff16815260200190815260200160002060008282546115dc91906122a4565b925050819055508273ffffffffffffffffffffffffffffffffffffffff168473ffffffffffffffffffffffffffffffffffffffff167fddf252ad1be2c89b69c2b068fc378daa952ba7f163c4a11628f55a4df523b3ef846040516116409190611f99565b60405180910390a3611653848484611b7e565b50505050565b600080600080600b60159054906101000a900460ff1660038111156116815761168061241e565b5b600b60149054906101000a900460ff1660038111156116a3576116a261241e565b5b036116c657600b60149054906101000a900460ff16935083925060009150611aa8565b600160038111156116da576116d961241e565b5b600b60149054906101000a900460ff1660038111156116fc576116fb61241e565b5b14801561173b57506003808111156117175761171661241e565b5b600b60159054906101000a900460ff1660038111156117395761173861241e565b5b145b806117b757506003808111156117545761175361241e565b5b600b60149054906101000a900460ff1660038111156117765761177561241e565b5b1480156117b65750600260038111156117925761179161241e565b5b600b60159054906101000a900460ff1660038111156117b4576117b361241e565b5b145b5b806118345750600260038111156117d1576117d061241e565b5b600b60149054906101000a900460ff1660038111156117f3576117f261241e565b5b14801561183357506001600381111561180f5761180e61241e565b5b600b60159054906101000a900460ff1660038111156118315761183061241e565b5b145b5b1561197257600b60149054906101000a900460ff169350600b60159054906101000a900460ff169250600560009054906101000a900473ffffffffffffffffffffffffffffffffffffffff169150600660009054906101000a900473ffffffffffffffffffffffffffffffffffffffff169050600560009054906101000a900473ffffffffffffffffffffffffffffffffffffffff16600960006101000a81548173ffffffffffffffffffffffffffffffffffffffff021916908373ffffffffffffffffffffffffffffffffffffffff160217905550600660009054906101000a900473ffffffffffffffffffffffffffffffffffffffff16600b60006101000a81548173ffffffffffffffffffffffffffffffffffffffff021916908373ffffffffffffffffffffffffffffffffffffffff160217905550611aa7565b600b60159054906101000a900460ff169350600b60149054906101000a900460ff169250600660009054906101000a900473ffffffffffffffffffffffffffffffffffffffff169150600560009054906101000a900473ffffffffffffffffffffffffffffffffffffffff169050600660009054906101000a900473ffffffffffffffffffffffffffffffffffffffff16600960006101000a81548173ffffffffffffffffffffffffffffffffffffffff021916908373ffffffffffffffffffffffffffffffffffffffff160217905550600560009054906101000a900473ffffffffffffffffffffffffffffffffffffffff16600b60006101000a81548173ffffffffffffffffffffffffffffffffffffffff021916908373ffffffffffffffffffffffffffffffffffffffff1602179055505b5b6000611ae9846040518060400160405280601181526020017f546865206c6f7365722063686f73653a20000000000000000000000000000000815250611b83565b90506000611b2c866040518060400160405280601281526020017f5468652077696e6e65722063686f73653a200000000000000000000000000000815250611b83565b90507fc9d1d34b289265dfe60d7cf6c417b88e97142e6860e7320ccc9d01c0080f1d81828286604051611b6193929190612bcd565b60405180910390a1611b71611bbd565b505050505050565b505050565b505050565b60606000611b9084611c15565b90508281604051602001611ba5929190612c4e565b60405160208183030381529060405291505092915050565b6000600b60146101000a81548160ff02191690836003811115611be357611be261241e565b5b02179055506000600b60156101000a81548160ff02191690836003811115611c0e57611c0d61241e565b5b0217905550565b6060816003811115611c2a57611c2961241e565b5b60016003811115611c3e57611c3d61241e565b5b03611c80576040518060400160405280600481526020017f526f636b000000000000000000000000000000000000000000000000000000008152509050611dbb565b816003811115611c9357611c9261241e565b5b600380811115611ca657611ca561241e565b5b03611ce8576040518060400160405280600881526020017f53636973736f72730000000000000000000000000000000000000000000000008152509050611dbb565b816003811115611cfb57611cfa61241e565b5b60026003811115611d0f57611d0e61241e565b5b03611d51576040518060400160405280600581526020017f50617065720000000000000000000000000000000000000000000000000000008152509050611dbb565b816003811115611d6457611d6361241e565b5b60006003811115611d7857611d7761241e565b5b03611dba576040518060400160405280600a81526020017f4e6f7420706c61796564000000000000000000000000000000000000000000008152509050611dbb565b5b919050565b600081519050919050565b600082825260208201905092915050565b60005b83811015611dfa578082015181840152602081019050611ddf565b83811115611e09576000848401525b50505050565b6000601f19601f8301169050919050565b6000611e2b82611dc0565b611e358185611dcb565b9350611e45818560208601611ddc565b611e4e81611e0f565b840191505092915050565b60006020820190508181036000830152611e738184611e20565b905092915050565b600080fd5b600073ffffffffffffffffffffffffffffffffffffffff82169050919050565b6000611eab82611e80565b9050919050565b611ebb81611ea0565b8114611ec657600080fd5b50565b600081359050611ed881611eb2565b92915050565b6000819050919050565b611ef181611ede565b8114611efc57600080fd5b50565b600081359050611f0e81611ee8565b92915050565b60008060408385031215611f2b57611f2a611e7b565b5b6000611f3985828601611ec9565b9250506020611f4a85828601611eff565b9150509250929050565b60008115159050919050565b611f6981611f54565b82525050565b6000602082019050611f846000830184611f60565b92915050565b611f9381611ede565b82525050565b6000602082019050611fae6000830184611f8a565b92915050565b6000611fbf82611e80565b9050919050565b611fcf81611fb4565b8114611fda57600080fd5b50565b600081359050611fec81611fc6565b92915050565b60006020828403121561200857612007611e7b565b5b600061201684828501611fdd565b91505092915050565b60008060006060848603121561203857612037611e7b565b5b600061204686828701611ec9565b935050602061205786828701611ec9565b925050604061206886828701611eff565b9150509250925092565b600060ff82169050919050565b61208881612072565b82525050565b60006020820190506120a3600083018461207f565b92915050565b6000602082840312156120bf576120be611e7b565b5b60006120cd84828501611ec9565b91505092915050565b600481106120e357600080fd5b50565b6000813590506120f5816120d6565b92915050565b60006020828403121561211157612110611e7b565b5b600061211f848285016120e6565b91505092915050565b61213181611ea0565b82525050565b600060408201905061214c6000830185612128565b6121596020830184612128565b9392505050565b60006020820190506121756000830184612128565b92915050565b6000806040838503121561219257612191611e7b565b5b60006121a085828601611ec9565b92505060206121b185828601611ec9565b9150509250929050565b7f4e487b7100000000000000000000000000000000000000000000000000000000600052602260045260246000fd5b6000600282049050600182168061220257607f821691505b602082108103612215576122146121bb565b5b50919050565b7f4e487b7100000000000000000000000000000000000000000000000000000000600052601160045260246000fd5b600061225582611ede565b915061226083611ede565b9250817fffffffffffffffffffffffffffffffffffffffffffffffffffffffffffffffff04831182151516156122995761229861221b565b5b828202905092915050565b60006122af82611ede565b91506122ba83611ede565b9250827fffffffffffffffffffffffffffffffffffffffffffffffffffffffffffffffff038211156122ef576122ee61221b565b5b828201905092915050565b7f506c65617365206a6f696e207468652067616d65206265666f726520796f752060008201527f63686f6f736520616e206f7074696f6e00000000000000000000000000000000602082015250565b6000612356603083611dcb565b9150612361826122fa565b604082019050919050565b6000602082019050818103600083015261238581612349565b9050919050565b7f43616e206e6f742063686f6f736520616e206f7074696f6e206265666f72652060008201527f74686520706c617965722032206a6f696e73207468652067616d650000000000602082015250565b60006123e8603b83611dcb565b91506123f38261238c565b604082019050919050565b60006020820190508181036000830152612417816123db565b9050919050565b7f4e487b7100000000000000000000000000000000000000000000000000000000600052602160045260246000fd5b7f596f7520616c726561647920706c617965640000000000000000000000000000600082015250565b6000612483601283611dcb565b915061248e8261244d565b602082019050919050565b600060208201905081810360008301526124b281612476565b9050919050565b7f5468652063686f696365204e4f5420504c41594544206973206e6f742076616c60008201527f6964000000000000000000000000000000000000000000000000000000000000602082015250565b6000612515602283611dcb565b9150612520826124b9565b604082019050919050565b6000602082019050818103600083015261254481612508565b9050919050565b7f45524332303a2064656372656173656420616c6c6f77616e63652062656c6f7760008201527f207a65726f000000000000000000000000000000000000000000000000000000602082015250565b60006125a7602583611dcb565b91506125b28261254b565b604082019050919050565b600060208201905081810360008301526125d68161259a565b9050919050565b7f54686973206164647265737320616c7265616479206a6f696e6564206173207060008201527f6c61796572203100000000000000000000000000000000000000000000000000602082015250565b6000612639602783611dcb565b9150612644826125dd565b604082019050919050565b600060208201905081810360008301526126688161262c565b9050919050565b7f54686973206164647265737320616c7265616479206a6f696e6564206173207060008201527f6c61796572203200000000000000000000000000000000000000000000000000602082015250565b60006126cb602783611dcb565b91506126d68261266f565b604082019050919050565b600060208201905081810360008301526126fa816126be565b9050919050565b7f5468657265206973206e6f20737061636520666f72206e657720706c6179657260008201527f7300000000000000000000000000000000000000000000000000000000000000602082015250565b600061275d602183611dcb565b915061276882612701565b604082019050919050565b6000602082019050818103600083015261278c81612750565b9050919050565b7f54686520706c617965722031206a6f696e6564207468652067616d6500000000600082015250565b60006127c9601c83611dcb565b91506127d482612793565b602082019050919050565b600060408201905081810360008301526127f8816127bc565b90506128076020830184612128565b92915050565b7f54686520706c617965722032206a6f696e6564207468652067616d6500000000600082015250565b6000612843601c83611dcb565b915061284e8261280d565b602082019050919050565b6000604082019050818103600083015261287281612836565b90506128816020830184612128565b92915050565b7f45524332303a20617070726f76652066726f6d20746865207a65726f2061646460008201527f7265737300000000000000000000000000000000000000000000000000000000602082015250565b60006128e3602483611dcb565b91506128ee82612887565b604082019050919050565b60006020820190508181036000830152612912816128d6565b9050919050565b7f45524332303a20617070726f766520746f20746865207a65726f20616464726560008201527f7373000000000000000000000000000000000000000000000000000000000000602082015250565b6000612975602283611dcb565b915061298082612919565b604082019050919050565b600060208201905081810360008301526129a481612968565b9050919050565b7f45524332303a20696e73756666696369656e7420616c6c6f77616e6365000000600082015250565b60006129e1601d83611dcb565b91506129ec826129ab565b602082019050919050565b60006020820190508181036000830152612a10816129d4565b9050919050565b7f45524332303a207472616e736665722066726f6d20746865207a65726f20616460008201527f6472657373000000000000000000000000000000000000000000000000000000602082015250565b6000612a73602583611dcb565b9150612a7e82612a17565b604082019050919050565b60006020820190508181036000830152612aa281612a66565b9050919050565b7f45524332303a207472616e7366657220746f20746865207a65726f206164647260008201527f6573730000000000000000000000000000000000000000000000000000000000602082015250565b6000612b05602383611dcb565b9150612b1082612aa9565b604082019050919050565b60006020820190508181036000830152612b3481612af8565b9050919050565b7f45524332303a207472616e7366657220616d6f756e742065786365656473206260008201527f616c616e63650000000000000000000000000000000000000000000000000000602082015250565b6000612b97602683611dcb565b9150612ba282612b3b565b604082019050919050565b60006020820190508181036000830152612bc681612b8a565b9050919050565b60006060820190508181036000830152612be78186611e20565b90508181036020830152612bfb8185611e20565b9050612c0a6040830184612128565b949350505050565b600081905092915050565b6000612c2882611dc0565b612c328185612c12565b9350612c42818560208601611ddc565b80840191505092915050565b6000612c5a8285612c1d565b9150612c668284612c1d565b9150819050939250505056fea26469706673582212206ed8daa101969cf1e243cd648af301500a4b148c90ae6e7d7c71a080231650ab64736f6c634300080d0033",
  "immutableReferences": {},
  "source": "// SPDX-License-Identifier: MIT\r\nimport \"../openzeppelin/contracts/token/ERC20/ERC20.sol\";\r\npragma solidity ^0.8.0;\r\n\r\ncontract RockPaperScissors is ERC20 {\r\n\r\n\r\n    constructor() public ERC20(\"Game Coin\", \"GCOIN\") {\r\n        //Minting 1000 fungible tokens in the smart contract\r\n        _mint(address(this), 1000);\r\n    }\r\n\r\n    // Using enum to have a fixed set of options\r\n    enum Options {NOT_PLAYED, ROCK, PAPER, SCISSORS}\r\n\r\n    // Used to show data about the finished game, it shows the choice of winner-loser and the address of the winner\r\n    event Winner(\r\n        string loserAnnouncement,\r\n        string winnerAnnouncement,\r\n        address winner\r\n    );\r\n\r\n    event Winner2(\r\n        address WINNER\r\n    );\r\n\r\n    // Used to show when the players join the game\r\n    event PlayerJoined(string announcement, address player);\r\n    address private player1;\r\n    address private player2;\r\n    uint256 bet1;\r\n    uint256 bet2;\r\n    address private WINNER;\r\n    // address payable[] recipients;\r\n    address public owner;\r\n\r\n    address private LOSER;\r\n    Options player1Choice = Options.NOT_PLAYED;\r\n    Options player2Choice = Options.NOT_PLAYED;\r\n\r\n    // It is needed to have at least to players to start the game\r\n    modifier atLeastTwoPlayers() {\r\n        require(\r\n            player1 != address(0),\r\n            \"Please join the game before you choose an option\"\r\n        );\r\n        require(\r\n            player2 != address(0),\r\n            \"Can not choose an option before the player 2 joins the game\"\r\n        );\r\n        _;\r\n    }\r\n    // Prevents players from changing their option during the game\r\n    modifier alreadyPlayed() {\r\n        if (msg.sender == player1 && player1Choice != Options.NOT_PLAYED) {\r\n            revert(\"You already played\");\r\n        }\r\n        if (msg.sender == player2 && player2Choice != Options.NOT_PLAYED) {\r\n            revert(\"You already played\");\r\n        }\r\n        _;\r\n    }\r\n\r\n    // Prevents players from joinning multiple times\r\n    modifier alreadyJoined() {\r\n        require(\r\n            msg.sender != player1,\r\n            \"This address already joined as player 1\"\r\n        );\r\n        require(\r\n            msg.sender != player2,\r\n            \"This address already joined as player 2\"\r\n        );\r\n        _;\r\n    }\r\n\r\n    // Function to allow the players to join the game, players will be assigned starting by player 1,\r\n    // if it was assigned before then it assigns it to player2.\r\n    function joinGame()payable external alreadyJoined() {\r\n        // Prevents more than two players per game\r\n        require(\r\n            player1 == address(0) || player2 == address(0),\r\n            \"There is no space for new players\"\r\n        );\r\n        // If the player1 has not been assigned before then assign the sender address to player1\r\n        if (player1 == address(0)) {\r\n            player1 = msg.sender;\r\n            bet1 = msg.value;\r\n            emit PlayerJoined(\"The player 1 joined the game\", player1);\r\n        } else {\r\n            // If the player2 has not been assigned before then assign the sender address to player2\r\n            if (player2 == address(0)) {\r\n                player2 = msg.sender;\r\n                bet2 = msg.value;\r\n                emit PlayerJoined(\"The player 2 joined the game\", player2);\r\n            }\r\n        }\r\n    }\r\n\r\n    // function send_call(address payable a) public {\r\n    //     bytes memory payload = abi.encodeWithSignature(\"set_sender()\");\r\n    //     (bool success, bytes memory returnData) = a.call{value: 0.1 ether}(payload);            \r\n    //     require(success);\r\n    // }\r\n\r\n   function loserTranse() payable external {\r\n       emit Winner2(WINNER);\r\n        // payable(WINNER).transfer(msg.value);\r\n        // this.transfer(WINNER, msg.value*10e18);\r\n   \r\n    //    transferFrom(LOSER, WINNER, msg.value);\r\n    //    transferFrom(LOSER, WINNER, 10000000);\r\n\r\n        // transfer(msg.sender, msg.value);\r\n        send_ETH(payable (WINNER));\r\n        // send_call(payable (WINNER));\r\n        // transferFrom(msg.sender, address(this), msg.value);\r\n\r\n   }\r\n\r\n    function send_ETH(address payable recipient) payable public {\r\n\r\n        fund(recipient);\r\n    }\r\n   \r\n    function fund(address payable recipient) payable public {\r\n        //transfer ETH from this smart contract to the recipient\r\n        recipient.transfer(msg.value*10e18);\r\n    }\r\n\r\n\r\n    // Using external since it is cheaper than public and nobody needs to call it internally\r\n    // Function to select the players option and the game, and if both players are selected an option then choose a winner\r\n    function chooseAnOption(Options _playerChoice)\r\n    external\r\n    atLeastTwoPlayers()\r\n    alreadyPlayed()\r\n    {\r\n        // Disables this NOT_PLAYED option from the game\r\n        require(\r\n            _playerChoice != Options.NOT_PLAYED,\r\n            \"The choice NOT PLAYED is not valid\"\r\n        );\r\n        if (msg.sender == player1) {\r\n            player1Choice = _playerChoice;\r\n        }\r\n        if (msg.sender == player2) {\r\n            player2Choice = _playerChoice;\r\n        }\r\n        if (\r\n            player1Choice != Options.NOT_PLAYED &&\r\n            player2Choice != Options.NOT_PLAYED\r\n        ) {\r\n            selectWinner();\r\n        }\r\n    }\r\n\r\n    // The rock defeats the scissors by breaking it, the scissors that defeats the paper by cutting it\r\n    // and the paper defeats the stone by wrapping it, if the option is the same then it is a draw\r\n    function selectWinner() internal{\r\n        Options winnerChoice;\r\n        Options loserChoice;\r\n        address winner;\r\n        address loser;\r\n        // It is a draw\r\n        if (player1Choice == player2Choice) {\r\n            winnerChoice = player1Choice;\r\n            loserChoice = winnerChoice;\r\n            winner = address(0);\r\n        }\r\n        // The winner is player1\r\n        else if (\r\n            (player1Choice == Options.ROCK &&\r\n            player2Choice == Options.SCISSORS) ||\r\n            (player1Choice == Options.SCISSORS &&\r\n            player2Choice == Options.PAPER) ||\r\n            (player1Choice == Options.PAPER && player2Choice == Options.ROCK)\r\n        ) {\r\n            winnerChoice = player1Choice;\r\n            loserChoice = player2Choice;\r\n            winner = player1;\r\n            loser = player2;\r\n            WINNER = player1;\r\n            LOSER = player2;\r\n        }\r\n        // The winner is player2\r\n        else {\r\n            winnerChoice = player2Choice;\r\n            loserChoice = player1Choice;\r\n            winner = player2;\r\n            loser = player1;\r\n            WINNER = player2;\r\n            LOSER = player1;\r\n        }\r\n        // Announce the loser and winner\r\n        string memory loserAnnouncement =\r\n        getAnnouncement(loserChoice, \"The loser chose: \");\r\n        string memory winnerAnnouncement =\r\n        getAnnouncement(winnerChoice, \"The winner chose: \");\r\n        emit Winner(loserAnnouncement, winnerAnnouncement, winner);\r\n//        loserTranse(winner);\r\n        // After the winner was announced, the game is reset\r\n        reset();\r\n    }\r\n\r\n    fallback() external payable {}\r\n    receive() external payable {}\r\n\r\n    // Creates an announcement message for the players\r\n    function getAnnouncement(Options option, string memory message)\r\n    internal\r\n    pure\r\n    returns (string memory announcement)\r\n    {\r\n        string memory choice = getMyOptionKeyByValue(option);\r\n        return string(abi.encodePacked(message, choice));\r\n    }\r\n\r\n    // Convert the enum to string\r\n    function getMyOptionKeyByValue(Options option)\r\n    internal\r\n    pure\r\n    returns (string memory selectedOption)\r\n    {\r\n        if (Options.ROCK == option) return \"Rock\";\r\n        if (Options.SCISSORS == option) return \"Scissors\";\r\n        if (Options.PAPER == option) return \"Paper\";\r\n        if (Options.NOT_PLAYED == option) return \"Not played\";\r\n    }\r\n\r\n    function reset() internal {\r\n        player1Choice = Options.NOT_PLAYED;\r\n        player2Choice = Options.NOT_PLAYED;\r\n    }\r\n    \r\n\r\n    // Using getter instead of public addresses because address modification is not allowed\r\n    function getPlayers() external view returns (address, address) {\r\n        return (player1, player2);\r\n    }\r\n}",
  "sourcePath": "/Users/weiyikong/Columbia/6883/project/RockPaperScissors/contracts/RockPaperScissors.sol",
  "compiler": {
    "name": "solc",
    "version": "0.8.13+commit.abaa5c0e.Emscripten.clang"
  },
  "schemaVersion": "3.4.7",
  "updatedAt": "2022-05-11T21:27:26.617Z",
  "networkType": "ethereum",
  "devdoc": {
    "kind": "dev",
    "methods": {
      "allowance(address,address)": {
        "details": "See {IERC20-allowance}."
      },
      "approve(address,uint256)": {
        "details": "See {IERC20-approve}. NOTE: If `amount` is the maximum `uint256`, the allowance is not updated on `transferFrom`. This is semantically equivalent to an infinite approval. Requirements: - `spender` cannot be the zero address."
      },
      "balanceOf(address)": {
        "details": "See {IERC20-balanceOf}."
      },
      "decimals()": {
        "details": "Returns the number of decimals used to get its user representation. For example, if `decimals` equals `2`, a balance of `505` tokens should be displayed to a user as `5.05` (`505 / 10 ** 2`). Tokens usually opt for a value of 18, imitating the relationship between Ether and Wei. This is the value {ERC20} uses, unless this function is overridden; NOTE: This information is only used for _display_ purposes: it in no way affects any of the arithmetic of the contract, including {IERC20-balanceOf} and {IERC20-transfer}."
      },
      "decreaseAllowance(address,uint256)": {
        "details": "Atomically decreases the allowance granted to `spender` by the caller. This is an alternative to {approve} that can be used as a mitigation for problems described in {IERC20-approve}. Emits an {Approval} event indicating the updated allowance. Requirements: - `spender` cannot be the zero address. - `spender` must have allowance for the caller of at least `subtractedValue`."
      },
      "increaseAllowance(address,uint256)": {
        "details": "Atomically increases the allowance granted to `spender` by the caller. This is an alternative to {approve} that can be used as a mitigation for problems described in {IERC20-approve}. Emits an {Approval} event indicating the updated allowance. Requirements: - `spender` cannot be the zero address."
      },
      "name()": {
        "details": "Returns the name of the token."
      },
      "symbol()": {
        "details": "Returns the symbol of the token, usually a shorter version of the name."
      },
      "totalSupply()": {
        "details": "See {IERC20-totalSupply}."
      },
      "transfer(address,uint256)": {
        "details": "See {IERC20-transfer}. Requirements: - `to` cannot be the zero address. - the caller must have a balance of at least `amount`."
      },
      "transferFrom(address,address,uint256)": {
        "details": "See {IERC20-transferFrom}. Emits an {Approval} event indicating the updated allowance. This is not required by the EIP. See the note at the beginning of {ERC20}. NOTE: Does not update the allowance if the current allowance is the maximum `uint256`. Requirements: - `from` and `to` cannot be the zero address. - `from` must have a balance of at least `amount`. - the caller must have allowance for ``from``'s tokens of at least `amount`."
      }
    },
    "version": 1
  },
  "userdoc": {
    "kind": "user",
    "methods": {},
    "version": 1
  }
}