{
  "contractName": "RockPaperScissors",
  "abi": [
    {
      "inputs": [],
      "stateMutability": "nonpayable",
      "type": "constructor"
    },
    {
      "anonymous": false,
      "inputs": [
        {
          "indexed": true,
          "internalType": "address",
          "name": "owner",
          "type": "address"
        },
        {
          "indexed": true,
          "internalType": "address",
          "name": "spender",
          "type": "address"
        },
        {
          "indexed": false,
          "internalType": "uint256",
          "name": "value",
          "type": "uint256"
        }
      ],
      "name": "Approval",
      "type": "event"
    },
    {
      "anonymous": false,
      "inputs": [
        {
          "indexed": false,
          "internalType": "string",
          "name": "announcement",
          "type": "string"
        },
        {
          "indexed": false,
          "internalType": "address",
          "name": "player",
          "type": "address"
        }
      ],
      "name": "PlayerJoined",
      "type": "event"
    },
    {
      "anonymous": false,
      "inputs": [
        {
          "indexed": true,
          "internalType": "address",
          "name": "from",
          "type": "address"
        },
        {
          "indexed": true,
          "internalType": "address",
          "name": "to",
          "type": "address"
        },
        {
          "indexed": false,
          "internalType": "uint256",
          "name": "value",
          "type": "uint256"
        }
      ],
      "name": "Transfer",
      "type": "event"
    },
    {
      "anonymous": false,
      "inputs": [
        {
          "indexed": false,
          "internalType": "string",
          "name": "loserAnnouncement",
          "type": "string"
        },
        {
          "indexed": false,
          "internalType": "string",
          "name": "winnerAnnouncement",
          "type": "string"
        },
        {
          "indexed": false,
          "internalType": "address",
          "name": "winner",
          "type": "address"
        }
      ],
      "name": "Winner",
      "type": "event"
    },
    {
      "anonymous": false,
      "inputs": [
        {
          "indexed": false,
          "internalType": "address",
          "name": "WINNER",
          "type": "address"
        }
      ],
      "name": "Winner2",
      "type": "event"
    },
    {
      "stateMutability": "payable",
      "type": "fallback",
      "payable": true
    },
    {
      "inputs": [
        {
          "internalType": "address",
          "name": "owner",
          "type": "address"
        },
        {
          "internalType": "address",
          "name": "spender",
          "type": "address"
        }
      ],
      "name": "allowance",
      "outputs": [
        {
          "internalType": "uint256",
          "name": "",
          "type": "uint256"
        }
      ],
      "stateMutability": "view",
      "type": "function",
      "constant": true
    },
    {
      "inputs": [
        {
          "internalType": "address",
          "name": "spender",
          "type": "address"
        },
        {
          "internalType": "uint256",
          "name": "amount",
          "type": "uint256"
        }
      ],
      "name": "approve",
      "outputs": [
        {
          "internalType": "bool",
          "name": "",
          "type": "bool"
        }
      ],
      "stateMutability": "nonpayable",
      "type": "function"
    },
    {
      "inputs": [
        {
          "internalType": "address",
          "name": "account",
          "type": "address"
        }
      ],
      "name": "balanceOf",
      "outputs": [
        {
          "internalType": "uint256",
          "name": "",
          "type": "uint256"
        }
      ],
      "stateMutability": "view",
      "type": "function",
      "constant": true
    },
    {
      "inputs": [],
      "name": "decimals",
      "outputs": [
        {
          "internalType": "uint8",
          "name": "",
          "type": "uint8"
        }
      ],
      "stateMutability": "view",
      "type": "function",
      "constant": true
    },
    {
      "inputs": [
        {
          "internalType": "address",
          "name": "spender",
          "type": "address"
        },
        {
          "internalType": "uint256",
          "name": "subtractedValue",
          "type": "uint256"
        }
      ],
      "name": "decreaseAllowance",
      "outputs": [
        {
          "internalType": "bool",
          "name": "",
          "type": "bool"
        }
      ],
      "stateMutability": "nonpayable",
      "type": "function"
    },
    {
      "inputs": [
        {
          "internalType": "address",
          "name": "spender",
          "type": "address"
        },
        {
          "internalType": "uint256",
          "name": "addedValue",
          "type": "uint256"
        }
      ],
      "name": "increaseAllowance",
      "outputs": [
        {
          "internalType": "bool",
          "name": "",
          "type": "bool"
        }
      ],
      "stateMutability": "nonpayable",
      "type": "function"
    },
    {
      "inputs": [],
      "name": "name",
      "outputs": [
        {
          "internalType": "string",
          "name": "",
          "type": "string"
        }
      ],
      "stateMutability": "view",
      "type": "function",
      "constant": true
    },
    {
      "inputs": [],
      "name": "symbol",
      "outputs": [
        {
          "internalType": "string",
          "name": "",
          "type": "string"
        }
      ],
      "stateMutability": "view",
      "type": "function",
      "constant": true
    },
    {
      "inputs": [],
      "name": "totalSupply",
      "outputs": [
        {
          "internalType": "uint256",
          "name": "",
          "type": "uint256"
        }
      ],
      "stateMutability": "view",
      "type": "function",
      "constant": true
    },
    {
      "inputs": [
        {
          "internalType": "address",
          "name": "to",
          "type": "address"
        },
        {
          "internalType": "uint256",
          "name": "amount",
          "type": "uint256"
        }
      ],
      "name": "transfer",
      "outputs": [
        {
          "internalType": "bool",
          "name": "",
          "type": "bool"
        }
      ],
      "stateMutability": "nonpayable",
      "type": "function"
    },
    {
      "inputs": [
        {
          "internalType": "address",
          "name": "from",
          "type": "address"
        },
        {
          "internalType": "address",
          "name": "to",
          "type": "address"
        },
        {
          "internalType": "uint256",
          "name": "amount",
          "type": "uint256"
        }
      ],
      "name": "transferFrom",
      "outputs": [
        {
          "internalType": "bool",
          "name": "",
          "type": "bool"
        }
      ],
      "stateMutability": "nonpayable",
      "type": "function"
    },
    {
      "stateMutability": "payable",
      "type": "receive",
      "payable": true
    },
    {
      "inputs": [],
      "name": "joinGame",
      "outputs": [],
      "stateMutability": "nonpayable",
      "type": "function"
    },
    {
      "inputs": [],
      "name": "loserTranse",
      "outputs": [],
      "stateMutability": "payable",
      "type": "function",
      "payable": true
    },
    {
      "inputs": [
        {
          "internalType": "enum RockPaperScissors.Options",
          "name": "_playerChoice",
          "type": "uint8"
        }
      ],
      "name": "chooseAnOption",
      "outputs": [],
      "stateMutability": "nonpayable",
      "type": "function"
    },
    {
      "inputs": [],
      "name": "getPlayers",
      "outputs": [
        {
          "internalType": "address",
          "name": "",
          "type": "address"
        },
        {
          "internalType": "address",
          "name": "",
          "type": "address"
        }
      ],
      "stateMutability": "view",
      "type": "function",
      "constant": true
    }
  ],
  "bytecode": "0x60806040526000600860146101000a81548160ff021916908360038111156200002d576200002c6200035a565b5b02179055506000600860156101000a81548160ff021916908360038111156200005b576200005a6200035a565b5b02179055503480156200006d57600080fd5b506040518060400160405280600981526020017f47616d6520436f696e00000000000000000000000000000000000000000000008152506040518060400160405280600581526020017f47434f494e0000000000000000000000000000000000000000000000000000008152508160039080519060200190620000f2929190620002aa565b5080600490805190602001906200010b929190620002aa565b50505062000122306103e86200012860201b60201c565b62000534565b600073ffffffffffffffffffffffffffffffffffffffff168273ffffffffffffffffffffffffffffffffffffffff16036200019a576040517f08c379a00000000000000000000000000000000000000000000000000000000081526004016200019190620003ea565b60405180910390fd5b620001ae60008383620002a060201b60201c565b8060026000828254620001c2919062000445565b92505081905550806000808473ffffffffffffffffffffffffffffffffffffffff1673ffffffffffffffffffffffffffffffffffffffff168152602001908152602001600020600082825462000219919062000445565b925050819055508173ffffffffffffffffffffffffffffffffffffffff16600073ffffffffffffffffffffffffffffffffffffffff167fddf252ad1be2c89b69c2b068fc378daa952ba7f163c4a11628f55a4df523b3ef83604051620002809190620004b3565b60405180910390a36200029c60008383620002a560201b60201c565b5050565b505050565b505050565b828054620002b890620004ff565b90600052602060002090601f016020900481019282620002dc576000855562000328565b82601f10620002f757805160ff191683800117855562000328565b8280016001018555821562000328579182015b82811115620003275782518255916020019190600101906200030a565b5b5090506200033791906200033b565b5090565b5b80821115620003565760008160009055506001016200033c565b5090565b7f4e487b7100000000000000000000000000000000000000000000000000000000600052602160045260246000fd5b600082825260208201905092915050565b7f45524332303a206d696e7420746f20746865207a65726f206164647265737300600082015250565b6000620003d2601f8362000389565b9150620003df826200039a565b602082019050919050565b600060208201905081810360008301526200040581620003c3565b9050919050565b6000819050919050565b7f4e487b7100000000000000000000000000000000000000000000000000000000600052601160045260246000fd5b600062000452826200040c565b91506200045f836200040c565b9250827fffffffffffffffffffffffffffffffffffffffffffffffffffffffffffffffff0382111562000497576200049662000416565b5b828201905092915050565b620004ad816200040c565b82525050565b6000602082019050620004ca6000830184620004a2565b92915050565b7f4e487b7100000000000000000000000000000000000000000000000000000000600052602260045260246000fd5b600060028204905060018216806200051857607f821691505b6020821081036200052e576200052d620004d0565b5b50919050565b612ab080620005446000396000f3fe6080604052600436106100ec5760003560e01c806370a082311161008a578063a457c2d711610059578063a457c2d7146102f4578063a9059cbb14610331578063d4f77b1c1461036e578063dd62ed3e14610385576100f3565b806370a082311461023757806387535263146102745780638b5b9ccc1461029d57806395d89b41146102c9576100f3565b806323b872dd116100c657806323b872dd14610188578063313ce567146101c557806339509351146101f05780636198b35a1461022d576100f3565b806306fdde03146100f5578063095ea7b31461012057806318160ddd1461015d576100f3565b366100f357005b005b34801561010157600080fd5b5061010a6103c2565b6040516101179190611d26565b60405180910390f35b34801561012c57600080fd5b5061014760048036038101906101429190611de1565b610454565b6040516101549190611e3c565b60405180910390f35b34801561016957600080fd5b50610172610477565b60405161017f9190611e66565b60405180910390f35b34801561019457600080fd5b506101af60048036038101906101aa9190611e81565b610481565b6040516101bc9190611e3c565b60405180910390f35b3480156101d157600080fd5b506101da6104b0565b6040516101e79190611ef0565b60405180910390f35b3480156101fc57600080fd5b5061021760048036038101906102129190611de1565b6104b9565b6040516102249190611e3c565b60405180910390f35b6102356104f0565b005b34801561024357600080fd5b5061025e60048036038101906102599190611f0b565b610557565b60405161026b9190611e66565b60405180910390f35b34801561028057600080fd5b5061029b60048036038101906102969190611f5d565b61059f565b005b3480156102a957600080fd5b506102b2610a53565b6040516102c0929190611f99565b60405180910390f35b3480156102d557600080fd5b506102de610aa4565b6040516102eb9190611d26565b60405180910390f35b34801561030057600080fd5b5061031b60048036038101906103169190611de1565b610b36565b6040516103289190611e3c565b60405180910390f35b34801561033d57600080fd5b5061035860048036038101906103539190611de1565b610bad565b6040516103659190611e3c565b60405180910390f35b34801561037a57600080fd5b50610383610bd0565b005b34801561039157600080fd5b506103ac60048036038101906103a79190611fc2565b610fc3565b6040516103b99190611e66565b60405180910390f35b6060600380546103d190612031565b80601f01602080910402602001604051908101604052809291908181526020018280546103fd90612031565b801561044a5780601f1061041f5761010080835404028352916020019161044a565b820191906000526020600020905b81548152906001019060200180831161042d57829003601f168201915b5050505050905090565b60008061045f61104a565b905061046c818585611052565b600191505092915050565b6000600254905090565b60008061048c61104a565b905061049985828561121b565b6104a48585856112a7565b60019150509392505050565b60006012905090565b6000806104c461104a565b90506104e58185856104d68589610fc3565b6104e09190612091565b611052565b600191505092915050565b7fad0999bce5437daa58197e038730011f8421614e3689c234ca597905ff4570a7600760009054906101000a900473ffffffffffffffffffffffffffffffffffffffff1660405161054191906120e7565b60405180910390a1610554333034610481565b50565b60008060008373ffffffffffffffffffffffffffffffffffffffff1673ffffffffffffffffffffffffffffffffffffffff168152602001908152602001600020549050919050565b600073ffffffffffffffffffffffffffffffffffffffff16600560009054906101000a900473ffffffffffffffffffffffffffffffffffffffff1673ffffffffffffffffffffffffffffffffffffffff1603610630576040517f08c379a000000000000000000000000000000000000000000000000000000000815260040161062790612174565b60405180910390fd5b600073ffffffffffffffffffffffffffffffffffffffff16600660009054906101000a900473ffffffffffffffffffffffffffffffffffffffff1673ffffffffffffffffffffffffffffffffffffffff16036106c1576040517f08c379a00000000000000000000000000000000000000000000000000000000081526004016106b890612206565b60405180910390fd5b600560009054906101000a900473ffffffffffffffffffffffffffffffffffffffff1673ffffffffffffffffffffffffffffffffffffffff163373ffffffffffffffffffffffffffffffffffffffff1614801561075257506000600381111561072d5761072c612226565b5b600860149054906101000a900460ff16600381111561074f5761074e612226565b5b14155b15610792576040517f08c379a0000000000000000000000000000000000000000000000000000000008152600401610789906122a1565b60405180910390fd5b600660009054906101000a900473ffffffffffffffffffffffffffffffffffffffff1673ffffffffffffffffffffffffffffffffffffffff163373ffffffffffffffffffffffffffffffffffffffff161480156108235750600060038111156107fe576107fd612226565b5b600860159054906101000a900460ff1660038111156108205761081f612226565b5b14155b15610863576040517f08c379a000000000000000000000000000000000000000000000000000000000815260040161085a906122a1565b60405180910390fd5b6000600381111561087757610876612226565b5b81600381111561088a57610889612226565b5b036108ca576040517f08c379a00000000000000000000000000000000000000000000000000000000081526004016108c190612333565b60405180910390fd5b600560009054906101000a900473ffffffffffffffffffffffffffffffffffffffff1673ffffffffffffffffffffffffffffffffffffffff163373ffffffffffffffffffffffffffffffffffffffff160361094a5780600860146101000a81548160ff0219169083600381111561094457610943612226565b5b02179055505b600660009054906101000a900473ffffffffffffffffffffffffffffffffffffffff1673ffffffffffffffffffffffffffffffffffffffff163373ffffffffffffffffffffffffffffffffffffffff16036109ca5780600860156101000a81548160ff021916908360038111156109c4576109c3612226565b5b02179055505b600060038111156109de576109dd612226565b5b600860149054906101000a900460ff166003811115610a00576109ff612226565b5b14158015610a42575060006003811115610a1d57610a1c612226565b5b600860159054906101000a900460ff166003811115610a3f57610a3e612226565b5b14155b15610a5057610a4f611526565b5b50565b600080600560009054906101000a900473ffffffffffffffffffffffffffffffffffffffff16600660009054906101000a900473ffffffffffffffffffffffffffffffffffffffff16915091509091565b606060048054610ab390612031565b80601f0160208091040260200160405190810160405280929190818152602001828054610adf90612031565b8015610b2c5780601f10610b0157610100808354040283529160200191610b2c565b820191906000526020600020905b815481529060010190602001808311610b0f57829003601f168201915b5050505050905090565b600080610b4161104a565b90506000610b4f8286610fc3565b905083811015610b94576040517f08c379a0000000000000000000000000000000000000000000000000000000008152600401610b8b906123c5565b60405180910390fd5b610ba18286868403611052565b60019250505092915050565b600080610bb861104a565b9050610bc58185856112a7565b600191505092915050565b600560009054906101000a900473ffffffffffffffffffffffffffffffffffffffff1673ffffffffffffffffffffffffffffffffffffffff163373ffffffffffffffffffffffffffffffffffffffff1603610c60576040517f08c379a0000000000000000000000000000000000000000000000000000000008152600401610c5790612457565b60405180910390fd5b600660009054906101000a900473ffffffffffffffffffffffffffffffffffffffff1673ffffffffffffffffffffffffffffffffffffffff163373ffffffffffffffffffffffffffffffffffffffff1603610cf0576040517f08c379a0000000000000000000000000000000000000000000000000000000008152600401610ce7906124e9565b60405180910390fd5b600073ffffffffffffffffffffffffffffffffffffffff16600560009054906101000a900473ffffffffffffffffffffffffffffffffffffffff1673ffffffffffffffffffffffffffffffffffffffff161480610d9b5750600073ffffffffffffffffffffffffffffffffffffffff16600660009054906101000a900473ffffffffffffffffffffffffffffffffffffffff1673ffffffffffffffffffffffffffffffffffffffff16145b610dda576040517f08c379a0000000000000000000000000000000000000000000000000000000008152600401610dd19061257b565b60405180910390fd5b600073ffffffffffffffffffffffffffffffffffffffff16600560009054906101000a900473ffffffffffffffffffffffffffffffffffffffff1673ffffffffffffffffffffffffffffffffffffffff1603610ecf5733600560006101000a81548173ffffffffffffffffffffffffffffffffffffffff021916908373ffffffffffffffffffffffffffffffffffffffff1602179055507f6426ed08b4816b27e58d721b4ff6fb44e6696b9d5ca257dcbd4b0576eb4dc539600560009054906101000a900473ffffffffffffffffffffffffffffffffffffffff16604051610ec291906125e7565b60405180910390a1610fc1565b600073ffffffffffffffffffffffffffffffffffffffff16600660009054906101000a900473ffffffffffffffffffffffffffffffffffffffff1673ffffffffffffffffffffffffffffffffffffffff1603610fc05733600660006101000a81548173ffffffffffffffffffffffffffffffffffffffff021916908373ffffffffffffffffffffffffffffffffffffffff1602179055507f6426ed08b4816b27e58d721b4ff6fb44e6696b9d5ca257dcbd4b0576eb4dc539600660009054906101000a900473ffffffffffffffffffffffffffffffffffffffff16604051610fb79190612661565b60405180910390a15b5b565b6000600160008473ffffffffffffffffffffffffffffffffffffffff1673ffffffffffffffffffffffffffffffffffffffff16815260200190815260200160002060008373ffffffffffffffffffffffffffffffffffffffff1673ffffffffffffffffffffffffffffffffffffffff16815260200190815260200160002054905092915050565b600033905090565b600073ffffffffffffffffffffffffffffffffffffffff168373ffffffffffffffffffffffffffffffffffffffff16036110c1576040517f08c379a00000000000000000000000000000000000000000000000000000000081526004016110b890612701565b60405180910390fd5b600073ffffffffffffffffffffffffffffffffffffffff168273ffffffffffffffffffffffffffffffffffffffff1603611130576040517f08c379a000000000000000000000000000000000000000000000000000000000815260040161112790612793565b60405180910390fd5b80600160008573ffffffffffffffffffffffffffffffffffffffff1673ffffffffffffffffffffffffffffffffffffffff16815260200190815260200160002060008473ffffffffffffffffffffffffffffffffffffffff1673ffffffffffffffffffffffffffffffffffffffff168152602001908152602001600020819055508173ffffffffffffffffffffffffffffffffffffffff168373ffffffffffffffffffffffffffffffffffffffff167f8c5be1e5ebec7d5bd14f71427d1e84f3dd0314c0f7b2291e5b200ac8c7c3b9258360405161120e9190611e66565b60405180910390a3505050565b60006112278484610fc3565b90507fffffffffffffffffffffffffffffffffffffffffffffffffffffffffffffffff81146112a15781811015611293576040517f08c379a000000000000000000000000000000000000000000000000000000000815260040161128a906127ff565b60405180910390fd5b6112a08484848403611052565b5b50505050565b600073ffffffffffffffffffffffffffffffffffffffff168373ffffffffffffffffffffffffffffffffffffffff1603611316576040517f08c379a000000000000000000000000000000000000000000000000000000000815260040161130d90612891565b60405180910390fd5b600073ffffffffffffffffffffffffffffffffffffffff168273ffffffffffffffffffffffffffffffffffffffff1603611385576040517f08c379a000000000000000000000000000000000000000000000000000000000815260040161137c90612923565b60405180910390fd5b611390838383611a46565b60008060008573ffffffffffffffffffffffffffffffffffffffff1673ffffffffffffffffffffffffffffffffffffffff16815260200190815260200160002054905081811015611416576040517f08c379a000000000000000000000000000000000000000000000000000000000815260040161140d906129b5565b60405180910390fd5b8181036000808673ffffffffffffffffffffffffffffffffffffffff1673ffffffffffffffffffffffffffffffffffffffff16815260200190815260200160002081905550816000808573ffffffffffffffffffffffffffffffffffffffff1673ffffffffffffffffffffffffffffffffffffffff16815260200190815260200160002060008282546114a99190612091565b925050819055508273ffffffffffffffffffffffffffffffffffffffff168473ffffffffffffffffffffffffffffffffffffffff167fddf252ad1be2c89b69c2b068fc378daa952ba7f163c4a11628f55a4df523b3ef8460405161150d9190611e66565b60405180910390a3611520848484611a4b565b50505050565b600080600080600860159054906101000a900460ff16600381111561154e5761154d612226565b5b600860149054906101000a900460ff1660038111156115705761156f612226565b5b0361159357600860149054906101000a900460ff16935083925060009150611975565b600160038111156115a7576115a6612226565b5b600860149054906101000a900460ff1660038111156115c9576115c8612226565b5b14801561160857506003808111156115e4576115e3612226565b5b600860159054906101000a900460ff16600381111561160657611605612226565b5b145b80611684575060038081111561162157611620612226565b5b600860149054906101000a900460ff16600381111561164357611642612226565b5b14801561168357506002600381111561165f5761165e612226565b5b600860159054906101000a900460ff16600381111561168157611680612226565b5b145b5b8061170157506002600381111561169e5761169d612226565b5b600860149054906101000a900460ff1660038111156116c0576116bf612226565b5b1480156117005750600160038111156116dc576116db612226565b5b600860159054906101000a900460ff1660038111156116fe576116fd612226565b5b145b5b1561183f57600860149054906101000a900460ff169350600860159054906101000a900460ff169250600560009054906101000a900473ffffffffffffffffffffffffffffffffffffffff169150600660009054906101000a900473ffffffffffffffffffffffffffffffffffffffff169050600560009054906101000a900473ffffffffffffffffffffffffffffffffffffffff16600760006101000a81548173ffffffffffffffffffffffffffffffffffffffff021916908373ffffffffffffffffffffffffffffffffffffffff160217905550600660009054906101000a900473ffffffffffffffffffffffffffffffffffffffff16600860006101000a81548173ffffffffffffffffffffffffffffffffffffffff021916908373ffffffffffffffffffffffffffffffffffffffff160217905550611974565b600860159054906101000a900460ff169350600860149054906101000a900460ff169250600660009054906101000a900473ffffffffffffffffffffffffffffffffffffffff169150600560009054906101000a900473ffffffffffffffffffffffffffffffffffffffff169050600660009054906101000a900473ffffffffffffffffffffffffffffffffffffffff16600760006101000a81548173ffffffffffffffffffffffffffffffffffffffff021916908373ffffffffffffffffffffffffffffffffffffffff160217905550600560009054906101000a900473ffffffffffffffffffffffffffffffffffffffff16600860006101000a81548173ffffffffffffffffffffffffffffffffffffffff021916908373ffffffffffffffffffffffffffffffffffffffff1602179055505b5b60006119b6846040518060400160405280601181526020017f546865206c6f7365722063686f73653a20000000000000000000000000000000815250611a50565b905060006119f9866040518060400160405280601281526020017f5468652077696e6e65722063686f73653a200000000000000000000000000000815250611a50565b90507fc9d1d34b289265dfe60d7cf6c417b88e97142e6860e7320ccc9d01c0080f1d81828286604051611a2e939291906129d5565b60405180910390a1611a3e611a8a565b505050505050565b505050565b505050565b60606000611a5d84611ae2565b90508281604051602001611a72929190612a56565b60405160208183030381529060405291505092915050565b6000600860146101000a81548160ff02191690836003811115611ab057611aaf612226565b5b02179055506000600860156101000a81548160ff02191690836003811115611adb57611ada612226565b5b0217905550565b6060816003811115611af757611af6612226565b5b60016003811115611b0b57611b0a612226565b5b03611b4d576040518060400160405280600481526020017f526f636b000000000000000000000000000000000000000000000000000000008152509050611c88565b816003811115611b6057611b5f612226565b5b600380811115611b7357611b72612226565b5b03611bb5576040518060400160405280600881526020017f53636973736f72730000000000000000000000000000000000000000000000008152509050611c88565b816003811115611bc857611bc7612226565b5b60026003811115611bdc57611bdb612226565b5b03611c1e576040518060400160405280600581526020017f50617065720000000000000000000000000000000000000000000000000000008152509050611c88565b816003811115611c3157611c30612226565b5b60006003811115611c4557611c44612226565b5b03611c87576040518060400160405280600a81526020017f4e6f7420706c61796564000000000000000000000000000000000000000000008152509050611c88565b5b919050565b600081519050919050565b600082825260208201905092915050565b60005b83811015611cc7578082015181840152602081019050611cac565b83811115611cd6576000848401525b50505050565b6000601f19601f8301169050919050565b6000611cf882611c8d565b611d028185611c98565b9350611d12818560208601611ca9565b611d1b81611cdc565b840191505092915050565b60006020820190508181036000830152611d408184611ced565b905092915050565b600080fd5b600073ffffffffffffffffffffffffffffffffffffffff82169050919050565b6000611d7882611d4d565b9050919050565b611d8881611d6d565b8114611d9357600080fd5b50565b600081359050611da581611d7f565b92915050565b6000819050919050565b611dbe81611dab565b8114611dc957600080fd5b50565b600081359050611ddb81611db5565b92915050565b60008060408385031215611df857611df7611d48565b5b6000611e0685828601611d96565b9250506020611e1785828601611dcc565b9150509250929050565b60008115159050919050565b611e3681611e21565b82525050565b6000602082019050611e516000830184611e2d565b92915050565b611e6081611dab565b82525050565b6000602082019050611e7b6000830184611e57565b92915050565b600080600060608486031215611e9a57611e99611d48565b5b6000611ea886828701611d96565b9350506020611eb986828701611d96565b9250506040611eca86828701611dcc565b9150509250925092565b600060ff82169050919050565b611eea81611ed4565b82525050565b6000602082019050611f056000830184611ee1565b92915050565b600060208284031215611f2157611f20611d48565b5b6000611f2f84828501611d96565b91505092915050565b60048110611f4557600080fd5b50565b600081359050611f5781611f38565b92915050565b600060208284031215611f7357611f72611d48565b5b6000611f8184828501611f48565b91505092915050565b611f9381611d6d565b82525050565b6000604082019050611fae6000830185611f8a565b611fbb6020830184611f8a565b9392505050565b60008060408385031215611fd957611fd8611d48565b5b6000611fe785828601611d96565b9250506020611ff885828601611d96565b9150509250929050565b7f4e487b7100000000000000000000000000000000000000000000000000000000600052602260045260246000fd5b6000600282049050600182168061204957607f821691505b60208210810361205c5761205b612002565b5b50919050565b7f4e487b7100000000000000000000000000000000000000000000000000000000600052601160045260246000fd5b600061209c82611dab565b91506120a783611dab565b9250827fffffffffffffffffffffffffffffffffffffffffffffffffffffffffffffffff038211156120dc576120db612062565b5b828201905092915050565b60006020820190506120fc6000830184611f8a565b92915050565b7f506c65617365206a6f696e207468652067616d65206265666f726520796f752060008201527f63686f6f736520616e206f7074696f6e00000000000000000000000000000000602082015250565b600061215e603083611c98565b915061216982612102565b604082019050919050565b6000602082019050818103600083015261218d81612151565b9050919050565b7f43616e206e6f742063686f6f736520616e206f7074696f6e206265666f72652060008201527f74686520706c617965722032206a6f696e73207468652067616d650000000000602082015250565b60006121f0603b83611c98565b91506121fb82612194565b604082019050919050565b6000602082019050818103600083015261221f816121e3565b9050919050565b7f4e487b7100000000000000000000000000000000000000000000000000000000600052602160045260246000fd5b7f596f7520616c726561647920706c617965640000000000000000000000000000600082015250565b600061228b601283611c98565b915061229682612255565b602082019050919050565b600060208201905081810360008301526122ba8161227e565b9050919050565b7f5468652063686f696365204e4f5420504c41594544206973206e6f742076616c60008201527f6964000000000000000000000000000000000000000000000000000000000000602082015250565b600061231d602283611c98565b9150612328826122c1565b604082019050919050565b6000602082019050818103600083015261234c81612310565b9050919050565b7f45524332303a2064656372656173656420616c6c6f77616e63652062656c6f7760008201527f207a65726f000000000000000000000000000000000000000000000000000000602082015250565b60006123af602583611c98565b91506123ba82612353565b604082019050919050565b600060208201905081810360008301526123de816123a2565b9050919050565b7f54686973206164647265737320616c7265616479206a6f696e6564206173207060008201527f6c61796572203100000000000000000000000000000000000000000000000000602082015250565b6000612441602783611c98565b915061244c826123e5565b604082019050919050565b6000602082019050818103600083015261247081612434565b9050919050565b7f54686973206164647265737320616c7265616479206a6f696e6564206173207060008201527f6c61796572203200000000000000000000000000000000000000000000000000602082015250565b60006124d3602783611c98565b91506124de82612477565b604082019050919050565b60006020820190508181036000830152612502816124c6565b9050919050565b7f5468657265206973206e6f20737061636520666f72206e657720706c6179657260008201527f7300000000000000000000000000000000000000000000000000000000000000602082015250565b6000612565602183611c98565b915061257082612509565b604082019050919050565b6000602082019050818103600083015261259481612558565b9050919050565b7f54686520706c617965722031206a6f696e6564207468652067616d6500000000600082015250565b60006125d1601c83611c98565b91506125dc8261259b565b602082019050919050565b60006040820190508181036000830152612600816125c4565b905061260f6020830184611f8a565b92915050565b7f54686520706c617965722032206a6f696e6564207468652067616d6500000000600082015250565b600061264b601c83611c98565b915061265682612615565b602082019050919050565b6000604082019050818103600083015261267a8161263e565b90506126896020830184611f8a565b92915050565b7f45524332303a20617070726f76652066726f6d20746865207a65726f2061646460008201527f7265737300000000000000000000000000000000000000000000000000000000602082015250565b60006126eb602483611c98565b91506126f68261268f565b604082019050919050565b6000602082019050818103600083015261271a816126de565b9050919050565b7f45524332303a20617070726f766520746f20746865207a65726f20616464726560008201527f7373000000000000000000000000000000000000000000000000000000000000602082015250565b600061277d602283611c98565b915061278882612721565b604082019050919050565b600060208201905081810360008301526127ac81612770565b9050919050565b7f45524332303a20696e73756666696369656e7420616c6c6f77616e6365000000600082015250565b60006127e9601d83611c98565b91506127f4826127b3565b602082019050919050565b60006020820190508181036000830152612818816127dc565b9050919050565b7f45524332303a207472616e736665722066726f6d20746865207a65726f20616460008201527f6472657373000000000000000000000000000000000000000000000000000000602082015250565b600061287b602583611c98565b91506128868261281f565b604082019050919050565b600060208201905081810360008301526128aa8161286e565b9050919050565b7f45524332303a207472616e7366657220746f20746865207a65726f206164647260008201527f6573730000000000000000000000000000000000000000000000000000000000602082015250565b600061290d602383611c98565b9150612918826128b1565b604082019050919050565b6000602082019050818103600083015261293c81612900565b9050919050565b7f45524332303a207472616e7366657220616d6f756e742065786365656473206260008201527f616c616e63650000000000000000000000000000000000000000000000000000602082015250565b600061299f602683611c98565b91506129aa82612943565b604082019050919050565b600060208201905081810360008301526129ce81612992565b9050919050565b600060608201905081810360008301526129ef8186611ced565b90508181036020830152612a038185611ced565b9050612a126040830184611f8a565b949350505050565b600081905092915050565b6000612a3082611c8d565b612a3a8185612a1a565b9350612a4a818560208601611ca9565b80840191505092915050565b6000612a628285612a25565b9150612a6e8284612a25565b9150819050939250505056fea2646970667358221220d04c4f1cef103df9929aec000642f4247900efafc30806d4b65d9a727564296a64736f6c634300080d0033",
  "immutableReferences": {},
  "source": "// SPDX-License-Identifier: MIT\r\nimport \"../openzeppelin/contracts/token/ERC20/ERC20.sol\";\r\npragma solidity ^0.8.0;\r\n\r\ncontract RockPaperScissors is ERC20 {\r\n\r\n\r\n    constructor() public ERC20(\"Game Coin\", \"GCOIN\") {\r\n        //Minting 1000 fungible tokens in the smart contract\r\n        _mint(address(this), 1000);\r\n    }\r\n\r\n    // Using enum to have a fixed set of options\r\n    enum Options {NOT_PLAYED, ROCK, PAPER, SCISSORS}\r\n\r\n    // Used to show data about the finished game, it shows the choice of winner-loser and the address of the winner\r\n    event Winner(\r\n        string loserAnnouncement,\r\n        string winnerAnnouncement,\r\n        address winner\r\n    );\r\n\r\n    event Winner2(\r\n        address WINNER\r\n    );\r\n\r\n    // Used to show when the players join the game\r\n    event PlayerJoined(string announcement, address player);\r\n    address private player1;\r\n    address private player2;\r\n    address private WINNER;\r\n    address private LOSER;\r\n    Options player1Choice = Options.NOT_PLAYED;\r\n    Options player2Choice = Options.NOT_PLAYED;\r\n\r\n    // It is needed to have at least to players to start the game\r\n    modifier atLeastTwoPlayers() {\r\n        require(\r\n            player1 != address(0),\r\n            \"Please join the game before you choose an option\"\r\n        );\r\n        require(\r\n            player2 != address(0),\r\n            \"Can not choose an option before the player 2 joins the game\"\r\n        );\r\n        _;\r\n    }\r\n    // Prevents players from changing their option during the game\r\n    modifier alreadyPlayed() {\r\n        if (msg.sender == player1 && player1Choice != Options.NOT_PLAYED) {\r\n            revert(\"You already played\");\r\n        }\r\n        if (msg.sender == player2 && player2Choice != Options.NOT_PLAYED) {\r\n            revert(\"You already played\");\r\n        }\r\n        _;\r\n    }\r\n\r\n    // Prevents players from joinning multiple times\r\n    modifier alreadyJoined() {\r\n        require(\r\n            msg.sender != player1,\r\n            \"This address already joined as player 1\"\r\n        );\r\n        require(\r\n            msg.sender != player2,\r\n            \"This address already joined as player 2\"\r\n        );\r\n        _;\r\n    }\r\n\r\n    // Function to allow the players to join the game, players will be assigned starting by player 1,\r\n    // if it was assigned before then it assigns it to player2.\r\n    function joinGame() external alreadyJoined() {\r\n        // Prevents more than two players per game\r\n        require(\r\n            player1 == address(0) || player2 == address(0),\r\n            \"There is no space for new players\"\r\n        );\r\n        // If the player1 has not been assigned before then assign the sender address to player1\r\n        if (player1 == address(0)) {\r\n            player1 = msg.sender;\r\n            emit PlayerJoined(\"The player 1 joined the game\", player1);\r\n        } else {\r\n            // If the player2 has not been assigned before then assign the sender address to player2\r\n            if (player2 == address(0)) {\r\n                player2 = msg.sender;\r\n                emit PlayerJoined(\"The player 2 joined the game\", player2);\r\n            }\r\n        }\r\n    }\r\n\r\n   function loserTranse() payable external {\r\n       emit Winner2(WINNER);\r\n        // payable(WINNER).transfer(msg.value);\r\n        // this.transfer(WINNER, msg.value);\r\n   \r\n    //    transferFrom(LOSER, WINNER, msg.value);\r\n        // transfer(msg.sender, msg.value);\r\n        transferFrom(msg.sender, address(this), msg.value);\r\n\r\n   }\r\n\r\n\r\n    // Using external since it is cheaper than public and nobody needs to call it internally\r\n    // Function to select the players option and the game, and if both players are selected an option then choose a winner\r\n    function chooseAnOption(Options _playerChoice)\r\n    external\r\n    atLeastTwoPlayers()\r\n    alreadyPlayed()\r\n    {\r\n        // Disables this NOT_PLAYED option from the game\r\n        require(\r\n            _playerChoice != Options.NOT_PLAYED,\r\n            \"The choice NOT PLAYED is not valid\"\r\n        );\r\n        if (msg.sender == player1) {\r\n            player1Choice = _playerChoice;\r\n        }\r\n        if (msg.sender == player2) {\r\n            player2Choice = _playerChoice;\r\n        }\r\n        if (\r\n            player1Choice != Options.NOT_PLAYED &&\r\n            player2Choice != Options.NOT_PLAYED\r\n        ) {\r\n            selectWinner();\r\n        }\r\n    }\r\n\r\n    // The rock defeats the scissors by breaking it, the scissors that defeats the paper by cutting it\r\n    // and the paper defeats the stone by wrapping it, if the option is the same then it is a draw\r\n    function selectWinner() internal{\r\n        Options winnerChoice;\r\n        Options loserChoice;\r\n        address winner;\r\n        address loser;\r\n        // It is a draw\r\n        if (player1Choice == player2Choice) {\r\n            winnerChoice = player1Choice;\r\n            loserChoice = winnerChoice;\r\n            winner = address(0);\r\n        }\r\n        // The winner is player1\r\n        else if (\r\n            (player1Choice == Options.ROCK &&\r\n            player2Choice == Options.SCISSORS) ||\r\n            (player1Choice == Options.SCISSORS &&\r\n            player2Choice == Options.PAPER) ||\r\n            (player1Choice == Options.PAPER && player2Choice == Options.ROCK)\r\n        ) {\r\n            winnerChoice = player1Choice;\r\n            loserChoice = player2Choice;\r\n            winner = player1;\r\n            loser = player2;\r\n            WINNER = player1;\r\n            LOSER = player2;\r\n        }\r\n        // The winner is player2\r\n        else {\r\n            winnerChoice = player2Choice;\r\n            loserChoice = player1Choice;\r\n            winner = player2;\r\n            loser = player1;\r\n            WINNER = player2;\r\n            LOSER = player1;\r\n        }\r\n        // Announce the loser and winner\r\n        string memory loserAnnouncement =\r\n        getAnnouncement(loserChoice, \"The loser chose: \");\r\n        string memory winnerAnnouncement =\r\n        getAnnouncement(winnerChoice, \"The winner chose: \");\r\n        emit Winner(loserAnnouncement, winnerAnnouncement, winner);\r\n//        loserTranse(winner);\r\n        // After the winner was announced, the game is reset\r\n        reset();\r\n    }\r\n\r\n    fallback() external payable {}\r\n    receive() external payable {}\r\n\r\n    // Creates an announcement message for the players\r\n    function getAnnouncement(Options option, string memory message)\r\n    internal\r\n    pure\r\n    returns (string memory announcement)\r\n    {\r\n        string memory choice = getMyOptionKeyByValue(option);\r\n        return string(abi.encodePacked(message, choice));\r\n    }\r\n\r\n    // Convert the enum to string\r\n    function getMyOptionKeyByValue(Options option)\r\n    internal\r\n    pure\r\n    returns (string memory selectedOption)\r\n    {\r\n        if (Options.ROCK == option) return \"Rock\";\r\n        if (Options.SCISSORS == option) return \"Scissors\";\r\n        if (Options.PAPER == option) return \"Paper\";\r\n        if (Options.NOT_PLAYED == option) return \"Not played\";\r\n    }\r\n\r\n    function reset() internal {\r\n        player1Choice = Options.NOT_PLAYED;\r\n        player2Choice = Options.NOT_PLAYED;\r\n    }\r\n\r\n    // Using getter instead of public addresses because address modification is not allowed\r\n    function getPlayers() external view returns (address, address) {\r\n        return (player1, player2);\r\n    }\r\n}",
  "sourcePath": "/Users/weiyikong/Columbia/6883/project/RockPaperScissors/contracts/RockPaperScissors.sol",
  "compiler": {
    "name": "solc",
    "version": "0.8.13+commit.abaa5c0e.Emscripten.clang"
  },
  "schemaVersion": "3.4.7",
  "updatedAt": "2022-05-11T13:01:50.730Z",
  "networkType": "ethereum",
  "devdoc": {
    "kind": "dev",
    "methods": {
      "allowance(address,address)": {
        "details": "See {IERC20-allowance}."
      },
      "approve(address,uint256)": {
        "details": "See {IERC20-approve}. NOTE: If `amount` is the maximum `uint256`, the allowance is not updated on `transferFrom`. This is semantically equivalent to an infinite approval. Requirements: - `spender` cannot be the zero address."
      },
      "balanceOf(address)": {
        "details": "See {IERC20-balanceOf}."
      },
      "decimals()": {
        "details": "Returns the number of decimals used to get its user representation. For example, if `decimals` equals `2`, a balance of `505` tokens should be displayed to a user as `5.05` (`505 / 10 ** 2`). Tokens usually opt for a value of 18, imitating the relationship between Ether and Wei. This is the value {ERC20} uses, unless this function is overridden; NOTE: This information is only used for _display_ purposes: it in no way affects any of the arithmetic of the contract, including {IERC20-balanceOf} and {IERC20-transfer}."
      },
      "decreaseAllowance(address,uint256)": {
        "details": "Atomically decreases the allowance granted to `spender` by the caller. This is an alternative to {approve} that can be used as a mitigation for problems described in {IERC20-approve}. Emits an {Approval} event indicating the updated allowance. Requirements: - `spender` cannot be the zero address. - `spender` must have allowance for the caller of at least `subtractedValue`."
      },
      "increaseAllowance(address,uint256)": {
        "details": "Atomically increases the allowance granted to `spender` by the caller. This is an alternative to {approve} that can be used as a mitigation for problems described in {IERC20-approve}. Emits an {Approval} event indicating the updated allowance. Requirements: - `spender` cannot be the zero address."
      },
      "name()": {
        "details": "Returns the name of the token."
      },
      "symbol()": {
        "details": "Returns the symbol of the token, usually a shorter version of the name."
      },
      "totalSupply()": {
        "details": "See {IERC20-totalSupply}."
      },
      "transfer(address,uint256)": {
        "details": "See {IERC20-transfer}. Requirements: - `to` cannot be the zero address. - the caller must have a balance of at least `amount`."
      },
      "transferFrom(address,address,uint256)": {
        "details": "See {IERC20-transferFrom}. Emits an {Approval} event indicating the updated allowance. This is not required by the EIP. See the note at the beginning of {ERC20}. NOTE: Does not update the allowance if the current allowance is the maximum `uint256`. Requirements: - `from` and `to` cannot be the zero address. - `from` must have a balance of at least `amount`. - the caller must have allowance for ``from``'s tokens of at least `amount`."
      }
    },
    "version": 1
  },
  "userdoc": {
    "kind": "user",
    "methods": {},
    "version": 1
  }
}