{
  "contractName": "RockPaperScissors",
  "abi": [
    {
      "anonymous": false,
      "inputs": [
        {
          "indexed": false,
          "internalType": "string",
          "name": "announcement",
          "type": "string"
        },
        {
          "indexed": false,
          "internalType": "address",
          "name": "player",
          "type": "address"
        }
      ],
      "name": "PlayerJoined",
      "type": "event"
    },
    {
      "anonymous": false,
      "inputs": [
        {
          "indexed": false,
          "internalType": "string",
          "name": "loserAnnouncement",
          "type": "string"
        },
        {
          "indexed": false,
          "internalType": "string",
          "name": "winnerAnnouncement",
          "type": "string"
        },
        {
          "indexed": false,
          "internalType": "address",
          "name": "winner",
          "type": "address"
        }
      ],
      "name": "Winner",
      "type": "event"
    },
    {
      "constant": false,
      "inputs": [],
      "name": "joinGame",
      "outputs": [],
      "payable": false,
      "stateMutability": "nonpayable",
      "type": "function"
    },
    {
      "constant": false,
      "inputs": [
        {
          "internalType": "enum RockPaperScissors.Options",
          "name": "_playerChoice",
          "type": "uint8"
        }
      ],
      "name": "chooseAnOption",
      "outputs": [],
      "payable": false,
      "stateMutability": "nonpayable",
      "type": "function"
    },
    {
      "constant": true,
      "inputs": [],
      "name": "getPlayers",
      "outputs": [
        {
          "internalType": "address",
          "name": "",
          "type": "address"
        },
        {
          "internalType": "address",
          "name": "",
          "type": "address"
        }
      ],
      "payable": false,
      "stateMutability": "view",
      "type": "function"
    }
  ],
  "bytecode": "0x60806040526000600160146101000a81548160ff0219169083600381111561002357fe5b02179055506000600160156101000a81548160ff0219169083600381111561004757fe5b021790555034801561005857600080fd5b506112ef806100686000396000f3fe608060405234801561001057600080fd5b50600436106100415760003560e01c806387535263146100465780638b5b9ccc14610077578063d4f77b1c146100f4575b600080fd5b6100756004803603602081101561005c57600080fd5b81019080803560ff1690602001909291905050506100fe565b005b61007f610608565b604051808373ffffffffffffffffffffffffffffffffffffffff1673ffffffffffffffffffffffffffffffffffffffff1681526020018273ffffffffffffffffffffffffffffffffffffffff1673ffffffffffffffffffffffffffffffffffffffff1681526020019250505060405180910390f35b6100fc610658565b005b600073ffffffffffffffffffffffffffffffffffffffff166000809054906101000a900473ffffffffffffffffffffffffffffffffffffffff1673ffffffffffffffffffffffffffffffffffffffff1614156101a5576040517f08c379a00000000000000000000000000000000000000000000000000000000081526004018080602001828103825260308152602001806112216030913960400191505060405180910390fd5b600073ffffffffffffffffffffffffffffffffffffffff16600160009054906101000a900473ffffffffffffffffffffffffffffffffffffffff1673ffffffffffffffffffffffffffffffffffffffff16141561024d576040517f08c379a000000000000000000000000000000000000000000000000000000000815260040180806020018281038252603b8152602001806111e6603b913960400191505060405180910390fd5b6000809054906101000a900473ffffffffffffffffffffffffffffffffffffffff1673ffffffffffffffffffffffffffffffffffffffff163373ffffffffffffffffffffffffffffffffffffffff161480156102cf5750600060038111156102b157fe5b600160149054906101000a900460ff1660038111156102cc57fe5b14155b15610342576040517f08c379a00000000000000000000000000000000000000000000000000000000081526004018080602001828103825260128152602001807f596f7520616c726561647920706c61796564000000000000000000000000000081525060200191505060405180910390fd5b600160009054906101000a900473ffffffffffffffffffffffffffffffffffffffff1673ffffffffffffffffffffffffffffffffffffffff163373ffffffffffffffffffffffffffffffffffffffff161480156103c55750600060038111156103a757fe5b600160159054906101000a900460ff1660038111156103c257fe5b14155b15610438576040517f08c379a00000000000000000000000000000000000000000000000000000000081526004018080602001828103825260128152602001807f596f7520616c726561647920706c61796564000000000000000000000000000081525060200191505060405180910390fd5b6000600381111561044557fe5b81600381111561045157fe5b14156104a8576040517f08c379a00000000000000000000000000000000000000000000000000000000081526004018080602001828103825260228152602001806112516022913960400191505060405180910390fd5b6000809054906101000a900473ffffffffffffffffffffffffffffffffffffffff1673ffffffffffffffffffffffffffffffffffffffff163373ffffffffffffffffffffffffffffffffffffffff1614156105215780600160146101000a81548160ff0219169083600381111561051b57fe5b02179055505b600160009054906101000a900473ffffffffffffffffffffffffffffffffffffffff1673ffffffffffffffffffffffffffffffffffffffff163373ffffffffffffffffffffffffffffffffffffffff16141561059b5780600160156101000a81548160ff0219169083600381111561059557fe5b02179055505b600060038111156105a857fe5b600160149054906101000a900460ff1660038111156105c357fe5b141580156105f75750600060038111156105d957fe5b600160159054906101000a900460ff1660038111156105f457fe5b14155b1561060557610604610b56565b5b50565b6000806000809054906101000a900473ffffffffffffffffffffffffffffffffffffffff16600160009054906101000a900473ffffffffffffffffffffffffffffffffffffffff16915091509091565b6000809054906101000a900473ffffffffffffffffffffffffffffffffffffffff1673ffffffffffffffffffffffffffffffffffffffff163373ffffffffffffffffffffffffffffffffffffffff1614156106fe576040517f08c379a00000000000000000000000000000000000000000000000000000000081526004018080602001828103825260278152602001806111bf6027913960400191505060405180910390fd5b600160009054906101000a900473ffffffffffffffffffffffffffffffffffffffff1673ffffffffffffffffffffffffffffffffffffffff163373ffffffffffffffffffffffffffffffffffffffff1614156107a5576040517f08c379a00000000000000000000000000000000000000000000000000000000081526004018080602001828103825260278152602001806112946027913960400191505060405180910390fd5b600073ffffffffffffffffffffffffffffffffffffffff166000809054906101000a900473ffffffffffffffffffffffffffffffffffffffff1673ffffffffffffffffffffffffffffffffffffffff16148061084f5750600073ffffffffffffffffffffffffffffffffffffffff16600160009054906101000a900473ffffffffffffffffffffffffffffffffffffffff1673ffffffffffffffffffffffffffffffffffffffff16145b6108a4576040517f08c379a00000000000000000000000000000000000000000000000000000000081526004018080602001828103825260218152602001806112736021913960400191505060405180910390fd5b600073ffffffffffffffffffffffffffffffffffffffff166000809054906101000a900473ffffffffffffffffffffffffffffffffffffffff1673ffffffffffffffffffffffffffffffffffffffff1614156109fc57336000806101000a81548173ffffffffffffffffffffffffffffffffffffffff021916908373ffffffffffffffffffffffffffffffffffffffff1602179055507f6426ed08b4816b27e58d721b4ff6fb44e6696b9d5ca257dcbd4b0576eb4dc5396000809054906101000a900473ffffffffffffffffffffffffffffffffffffffff1660405180806020018373ffffffffffffffffffffffffffffffffffffffff1673ffffffffffffffffffffffffffffffffffffffff1681526020018281038252601c8152602001807f54686520706c617965722031206a6f696e6564207468652067616d65000000008152506020019250505060405180910390a1610b54565b600073ffffffffffffffffffffffffffffffffffffffff16600160009054906101000a900473ffffffffffffffffffffffffffffffffffffffff1673ffffffffffffffffffffffffffffffffffffffff161415610b535733600160006101000a81548173ffffffffffffffffffffffffffffffffffffffff021916908373ffffffffffffffffffffffffffffffffffffffff1602179055507f6426ed08b4816b27e58d721b4ff6fb44e6696b9d5ca257dcbd4b0576eb4dc539600160009054906101000a900473ffffffffffffffffffffffffffffffffffffffff1660405180806020018373ffffffffffffffffffffffffffffffffffffffff1673ffffffffffffffffffffffffffffffffffffffff1681526020018281038252601c8152602001807f54686520706c617965722032206a6f696e6564207468652067616d65000000008152506020019250505060405180910390a15b5b565b600080600080600160159054906101000a900460ff166003811115610b7757fe5b600160149054906101000a900460ff166003811115610b9257fe5b1415610bb657600160149054906101000a900460ff16935083925060009150610d55565b60016003811115610bc357fe5b600160149054906101000a900460ff166003811115610bde57fe5b148015610c0f5750600380811115610bf257fe5b600160159054906101000a900460ff166003811115610c0d57fe5b145b80610c6f5750600380811115610c2157fe5b600160149054906101000a900460ff166003811115610c3c57fe5b148015610c6e575060026003811115610c5157fe5b600160159054906101000a900460ff166003811115610c6c57fe5b145b5b15610ce657600160149054906101000a900460ff169350600160159054906101000a900460ff1692506000809054906101000a900473ffffffffffffffffffffffffffffffffffffffff169150600160009054906101000a900473ffffffffffffffffffffffffffffffffffffffff169050610d54565b600160159054906101000a900460ff169350600160149054906101000a900460ff169250600160009054906101000a900473ffffffffffffffffffffffffffffffffffffffff1691506000809054906101000a900473ffffffffffffffffffffffffffffffffffffffff1690505b5b6060610d96846040518060400160405280601181526020017f546865206c6f7365722063686f73653a20000000000000000000000000000000815250610f28565b90506060610dd9866040518060400160405280601281526020017f5468652077696e6e65722063686f73653a200000000000000000000000000000815250610f28565b90507fc9d1d34b289265dfe60d7cf6c417b88e97142e6860e7320ccc9d01c0080f1d818282866040518080602001806020018473ffffffffffffffffffffffffffffffffffffffff1673ffffffffffffffffffffffffffffffffffffffff168152602001838103835286818151815260200191508051906020019080838360005b83811015610e75578082015181840152602081019050610e5a565b50505050905090810190601f168015610ea25780820380516001836020036101000a031916815260200191505b50838103825285818151815260200191508051906020019080838360005b83811015610edb578082015181840152602081019050610ec0565b50505050905090810190601f168015610f085780820380516001836020036101000a031916815260200191505b509550505050505060405180910390a1610f20610ffd565b505050505050565b606080610f3484611047565b905082816040516020018083805190602001908083835b60208310610f6e5780518252602082019150602081019050602083039250610f4b565b6001836020036101000a03801982511681845116808217855250505050505090500182805190602001908083835b60208310610fbf5780518252602082019150602081019050602083039250610f9c565b6001836020036101000a0380198251168184511680821785525050505050509050019250505060405160208183030381529060405291505092915050565b6000600160146101000a81548160ff0219169083600381111561101c57fe5b02179055506000600160156101000a81548160ff0219169083600381111561104057fe5b0217905550565b606081600381111561105557fe5b6001600381111561106257fe5b14156110a5576040518060400160405280600481526020017f526f636b0000000000000000000000000000000000000000000000000000000081525090506111b9565b8160038111156110b157fe5b6003808111156110bd57fe5b1415611100576040518060400160405280600881526020017f53636973736f727300000000000000000000000000000000000000000000000081525090506111b9565b81600381111561110c57fe5b6002600381111561111957fe5b141561115c576040518060400160405280600581526020017f506170657200000000000000000000000000000000000000000000000000000081525090506111b9565b81600381111561116857fe5b6000600381111561117557fe5b14156111b8576040518060400160405280600a81526020017f4e6f7420706c617965640000000000000000000000000000000000000000000081525090506111b9565b5b91905056fe54686973206164647265737320616c7265616479206a6f696e656420617320706c61796572203143616e206e6f742063686f6f736520616e206f7074696f6e206265666f72652074686520706c617965722032206a6f696e73207468652067616d65506c65617365206a6f696e207468652067616d65206265666f726520796f752063686f6f736520616e206f7074696f6e5468652063686f696365204e4f5420504c41594544206973206e6f742076616c69645468657265206973206e6f20737061636520666f72206e657720706c617965727354686973206164647265737320616c7265616479206a6f696e656420617320706c617965722032a265627a7a72315820566330355bd8f4cc32eabeb5273eb6d06444a7d9f64e2af63b877a33c1589b8164736f6c63430005100032",
  "source": "// SPDX-License-Identifier: MIT\r\npragma solidity >=0.4.21;\r\n\r\ncontract RockPaperScissors {\r\n\r\n    // Using enum to have a fixed set of options\r\n    enum Options {NOT_PLAYED, ROCK, PAPER, SCISSORS}\r\n\r\n    // Used to show data about the finished game, it shows the choice of winner-loser and the address of the winner\r\n    event Winner(\r\n        string loserAnnouncement,\r\n        string winnerAnnouncement,\r\n        address winner\r\n    );\r\n\r\n    // Used to show when the players join the game\r\n    event PlayerJoined(string announcement, address player);\r\n    address private player1;\r\n    address private player2;\r\n    Options player1Choice = Options.NOT_PLAYED;\r\n    Options player2Choice = Options.NOT_PLAYED;\r\n\r\n    // It is needed to have at least to players to start the game\r\n    modifier atLeastTwoPlayers() {\r\n        require(\r\n            player1 != address(0),\r\n            \"Please join the game before you choose an option\"\r\n        );\r\n        require(\r\n            player2 != address(0),\r\n            \"Can not choose an option before the player 2 joins the game\"\r\n        );\r\n        _;\r\n    }\r\n    // Prevents players from changing their option during the game\r\n    modifier alreadyPlayed() {\r\n        if (msg.sender == player1 && player1Choice != Options.NOT_PLAYED) {\r\n            revert(\"You already played\");\r\n        }\r\n        if (msg.sender == player2 && player2Choice != Options.NOT_PLAYED) {\r\n            revert(\"You already played\");\r\n        }\r\n        _;\r\n    }\r\n\r\n    // Prevents players from joinning multiple times\r\n    modifier alreadyJoined() {\r\n        require(\r\n            msg.sender != player1,\r\n            \"This address already joined as player 1\"\r\n        );\r\n        require(\r\n            msg.sender != player2,\r\n            \"This address already joined as player 2\"\r\n        );\r\n        _;\r\n    }\r\n\r\n    // Function to allow the players to join the game, players will be assigned starting by player 1,\r\n    // if it was assigned before then it assigns it to player2.\r\n    function joinGame() external alreadyJoined() {\r\n        // Prevents more than two players per game\r\n        require(\r\n            player1 == address(0) || player2 == address(0),\r\n            \"There is no space for new players\"\r\n        );\r\n        // If the player1 has not been assigned before then assign the sender address to player1\r\n        if (player1 == address(0)) {\r\n            player1 = msg.sender;\r\n            emit PlayerJoined(\"The player 1 joined the game\", player1);\r\n        } else {\r\n            // If the player2 has not been assigned before then assign the sender address to player2\r\n            if (player2 == address(0)) {\r\n                player2 = msg.sender;\r\n                emit PlayerJoined(\"The player 2 joined the game\", player2);\r\n            }\r\n        }\r\n    }\r\n\r\n    // Using external since it is cheaper than public and nobody needs to call it internally\r\n    // Function to select the players option and the game, and if both players are selected an option then choose a winner\r\n    function chooseAnOption(Options _playerChoice)\r\n    external\r\n    atLeastTwoPlayers()\r\n    alreadyPlayed()\r\n    {\r\n        // Disables this NOT_PLAYED option from the game\r\n        require(\r\n            _playerChoice != Options.NOT_PLAYED,\r\n            \"The choice NOT PLAYED is not valid\"\r\n        );\r\n        if (msg.sender == player1) {\r\n            player1Choice = _playerChoice;\r\n        }\r\n        if (msg.sender == player2) {\r\n            player2Choice = _playerChoice;\r\n        }\r\n        if (\r\n            player1Choice != Options.NOT_PLAYED &&\r\n            player2Choice != Options.NOT_PLAYED\r\n        ) {\r\n            selectWinner();\r\n        }\r\n    }\r\n\r\n    // The rock defeats the scissors by breaking it, the scissors that defeats the paper by cutting it\r\n    // and the paper defeats the stone by wrapping it, if the option is the same then it is a draw\r\n    function selectWinner() internal{\r\n        Options winnerChoice;\r\n        Options loserChoice;\r\n        address winner;\r\n        address loser;\r\n        // It is a draw\r\n        if (player1Choice == player2Choice) {\r\n            winnerChoice = player1Choice;\r\n            loserChoice = winnerChoice;\r\n            winner = address(0);\r\n        }\r\n        // The winner is player1\r\n        else if (\r\n            (player1Choice == Options.ROCK &&\r\n            player2Choice == Options.SCISSORS) ||\r\n            (player1Choice == Options.SCISSORS &&\r\n            player2Choice == Options.PAPER)\r\n        ) {\r\n            winnerChoice = player1Choice;\r\n            loserChoice = player2Choice;\r\n            winner = player1;\r\n            loser = player2;\r\n        }\r\n        // The winner is player2\r\n        else {\r\n            winnerChoice = player2Choice;\r\n            loserChoice = player1Choice;\r\n            winner = player2;\r\n            loser = player1;\r\n        }\r\n        // Announce the loser and winner\r\n        string memory loserAnnouncement =\r\n        getAnnouncement(loserChoice, \"The loser chose: \");\r\n        string memory winnerAnnouncement =\r\n        getAnnouncement(winnerChoice, \"The winner chose: \");\r\n        emit Winner(loserAnnouncement, winnerAnnouncement, winner);\r\n//        payable(loser).transfer(msg.value);\r\n        // After the winner was announced, the game is reset\r\n        reset();\r\n    }\r\n\r\n//    fallback() external payable {}\r\n//    receive() external payable {}\r\n\r\n    // Creates an announcement message for the players\r\n    function getAnnouncement(Options option, string memory message)\r\n    internal\r\n    pure\r\n    returns (string memory announcement)\r\n    {\r\n        string memory choice = getMyOptionKeyByValue(option);\r\n        return string(abi.encodePacked(message, choice));\r\n    }\r\n\r\n    // Convert the enum to string\r\n    function getMyOptionKeyByValue(Options option)\r\n    internal\r\n    pure\r\n    returns (string memory selectedOption)\r\n    {\r\n        if (Options.ROCK == option) return \"Rock\";\r\n        if (Options.SCISSORS == option) return \"Scissors\";\r\n        if (Options.PAPER == option) return \"Paper\";\r\n        if (Options.NOT_PLAYED == option) return \"Not played\";\r\n    }\r\n\r\n    function reset() internal {\r\n        player1Choice = Options.NOT_PLAYED;\r\n        player2Choice = Options.NOT_PLAYED;\r\n    }\r\n\r\n    // Using getter instead of public addresses because address modification is not allowed\r\n    function getPlayers() external view returns (address, address) {\r\n        return (player1, player2);\r\n    }\r\n}\r\n",
  "sourcePath": "/Users/weiyikong/Columbia/6883/project/RockPaperScissors/contracts/RockPaperScissors.sol",
  "compiler": {
    "name": "solc",
    "version": "0.5.16+commit.9c3226ce.Emscripten.clang"
  },
  "schemaVersion": "3.4.7",
  "updatedAt": "2022-05-10T06:35:00.409Z",
  "devdoc": {
    "methods": {}
  },
  "userdoc": {
    "methods": {}
  }
}